:100000000C94CC050C9413060C9413060C94003439
:100010000C9413060C9413060C9413060C941306FC
:100020000C9413060C9413060C9464290C94192850
:100030000C94112B0C9413060C9413060C941306B9
:100040000C9413060C9413060C9413060C941306CC
:100050000C9413060C94A82A0C9413060C94130603
:100060000C9413060C9413060C9413060C941306AC
:100070000C9413060C9413060C9413060C9413069C
:100080000C9413060C9413060C9413060C9413068C
:100090000C9413060C9413060C9413060C9413067C
:1000A0000C9413060C9413060C941306310B340BAA
:1000B000500B5D0B640B840B1A0C1A0C1A0C1A0CE7
:1000C0001A0C870B890B8E0BB20BD30BD60BD90BEB
:1000D000FB0BD110D1100C110C111B121B121B1297
:1000E0001B123D11B111C311C311271E4E1EEA1F71
:1000F0004E1EEA1F961EB91EEA1FA81FBC1FCF2066
:10010000CF20E220E220D820E220E220E220CF200F
:10011000CF20DD20E220E220DD2000DA0281FFD9BD
:10012000F1DB20A4A62EAF00A0C000A1C800AED570
:1001300080A81FD300408D142000202020200053D1
:100140004352200020202020004341502000202046
:100150002020004E554D20000A0041646A757374DA
:100160000A0052616973650A004C6F7765720A0074
:1001700044656661756C740A00204C617965723A59
:1001800020000A00959600B5B600979800B7B80011
:10019000999A00B9BA009B9C00BBBC009D9E00BD13
:1001A000BE00808182838485868788898A8B8C8D36
:1001B0008E8F9091929394A0A1A2A3A4A5A6A7A884
:1001C000A9AAABACADAEAFB0B1B2B3B4C0C1C2C3FB
:1001D000C4C5C6C7C8C9CACBCCCDCECFD0D1D2D367
:1001E000D40000AE0000000000000000000000008D
:1001F00000000000000000000000000000000000FF
:1002000000000000000000007E0F00D4FFFFFFC7C9
:100210000000007800000000000000002A2B2800E9
:1002200000000000000000000000000000000029A5
:10023000000000002C1E3420212224342627252EE5
:10024000362D3738271E1F2021222324252633331D
:10025000362E37381F0405060708090A0B0C0D0E49
:100260000F101112131415161718191A1B1C1D2F15
:100270003130232D350405060708090A0B0C0D0E35
:100280000F101112131415161718191A1B1C1D2FF5
:100290003130354C0660FF0961A101096215002665
:1002A000FF009520750881020963150026FF00955F
:1002B0002075089102C005010906A101050719E092
:1002C00029E715002501950875018102950175083A
:1002D00081010507190029FF150026FF0095067505
:1002E00008810005081901290595057501910295F8
:1002F0000175039101C009024200020100A0FA0940
:100300000400000103010100092111010001224044
:10031000000705810308000A090401000203000028
:10032000000921110100012222000705820320009B
:10033000010705030320000112010002000000086C
:10034000EDFE7B78010001020001180353007700E5
:1003500061006C006C006F00770074006100690040
:100360006C0000000C03740061006B006A006E00FA
:100370000000040309040000000000003E5B4F5B26
:100380003E003E6B4F6B3E001C3E7C3E1C00183C0A
:100390007E3C18001C577D571C001C5E7F5E1C00B5
:1003A00000183C180000FFE7C3E7FF0000182418FE
:1003B0000000FFE7DBE7FF0030483A060E00262981
:1003C00079292600407F05050700407F05253F006D
:1003D0005A3CE73C5A007F3E1C1C0800081C1C3E8F
:1003E0007F0014227F2214005F5F005F5F00060918
:1003F0007F017F00006689956A0060606060600030
:1004000094A2FFA2940008047E04080010207E201D
:10041000100008082A1C0800081C2A0808001E10E2
:10042000101010000C1E0C1E0C0030383E3830002E
:10043000060E3E0E060000000000000000005F00F7
:100440000000000700070000147F147F14002E2A0C
:100450007F2A3A002313086462007749512750002D
:10046000000005030000003E414100000041413E04
:1004700000002A1C7F1C2A0008083E080800000013
:10048000A060000008080808080000006060000084
:100490002010080402007F4149417F0000007F00D6
:1004A0000000794949494F004149494977001F11E6
:1004B000117F10004F49494979007F494949790026
:1004C000010101017F007749494977004F494949B6
:1004D0007F0000001400000000403400000000080D
:1004E00014224100141414141400004122140800B2
:1004F000030159090F007F415D594F007F11110120
:100500007F007F41494977007F41414163007F017E
:1005100041417F007F41494949007F0109090900A4
:100520007F4149497B007F0808007F0000417F41EF
:1005300000000041413F00007F00080877007F4035
:10054000404040007F017E017F007F013E407F00F0
:100550007F4141417F007F0109090F007F41E14157
:100560007F007F0109196F006F4949497B00010134
:100570007F0101007F4040007F003F2040203F007E
:100580007F403F407F007714081477000F08700801
:100590000F00615149454300007F41414100020481
:1005A00008102000004141417F00040201020400C4
:1005B0004040404040000000030500007C444404EB
:1005C0007C007F0444447C007C44444444007C44DC
:1005D00044047F007C4454545C0000087F09000000
:1005E000BCA4A484FC007F000808780000007D0003
:1005F000000000407D0000007F10106C0000000132
:100600007F4000007C0478047C007C0404047C00AF
:100610007C4444447C007C0424243C003C2424048A
:100620007C00007C000404005C54545474000004FA
:100630007F4400007C4040007C001C2040201C00C7
:100640007C403C407C004428102844005C505050C2
:100650007C004464544C44000008774100000000D2
:100660007700000000417708000002010204020048
:100670003C2623263C000000000000000000000093
:10068000000000000000000000000000000000006A
:10069000000000000000000000000000000000005A
:1006A000000000000000000000000000000000004A
:1006B000000000000000000000000000000000003A
:1006C000000000000000000000000000000000002A
:1006D000000000000000000000000000000000001A
:1006E000000000000000000000000000000000000A
:1006F00000000000E0F0F0F0E0ECEEF7F370200016
:100700007C7C7C7E007E7E7E7F7F7F000080C0E0E0
:100710007E5B4F5BFEC00000C000DCD7DEDEDED7B4
:10072000DC00C0000000000020205070E0800000CD
:100730000000000000005F515555555555457D009E
:100740007C405C505C405C505C407C007C44545479
:10075000545454047C00057D017F00057D017F0019
:100760007C445454545454447C007C405C505C4061
:100770005C505C407C0014774057545454545400EF
:100780007C445454545454047C007D057D00057D04
:10079000017F0000000000007F415555555555452B
:1007A0007D007F415D5555555D417F000000000093
:1007B000000000000F1F3F7F7F7F7F7F3F1E0C00E8
:1007C0001F1F1F3F003F3F3F7F7F7F00307B7F78B1
:1007D00030202030787F3B0003000F7F0F0F0F7F0A
:1007E0000F000300207C7E7F7F7F7E3F7F470100DC
:1007F00000000000000000000000000000000000F9
:1008000000000000000000000000000000000000E8
:1008100000000000000000000000000000000000D8
:1008200000000000000000000000000000000000C8
:1008300000000000000000000000000000000000B8
:1008400000000000000000000000000000000000A8
:100850000000000000000000000000000000000098
:100860000000000000000000000000000000000088
:100870000000000000000000000000000000000078
:100880000000000000000000000000000000000068
:100890000000000000000000000000000000000058
:1008A0000000000000000000000000000000000048
:1008B000000000000000165C1E001F002000210048
:1008C00022002B0014001A00080015001700E00099
:1008D00004001600070009000A0034621D001B0016
:1008E000060019000500625D4600E3002F642D41FB
:1008F0002C002A00270026002500240023003100B8
:10090000130012000C0018001C00280033000F0018
:100910000E000D000B003872520037003600100038
:1009200011004F005100500030742E422800350055
:100930003A003B003C003D003E0001000100010088
:10094000010001000100010001000100010001009F
:10095000010001000100010001000100010001008F
:10096000010001000100010001004C0043004200B1
:10097000410040003F00010045004400010001002B
:10098000010001004D004E0052004B004A000100E2
:100990004B004F005100500001004D004E004A0036
:1009A00001000100010035003A003B003C003D0021
:1009B0003E000100010001000100010001000100F2
:1009C000010001000100010001000100010001001F
:1009D000010001000100010001000100010001000F
:1009E00001004C0043004200410040003F00010074
:1009F0004500440001000100010001004D004E00CF
:100A000052004B004A0001004B004F0051005000C3
:100A100001004D004E004A000100010001000100EC
:100A2000010001000100010001000100C25CC35C83
:100A3000635D010001000100C55CC75CC95C010089
:100A400001000100C65CC85CCA5C01000100010035
:100A5000010001000100010001000100010001008E
:100A6000010001000100010001000100010001007E
:100A7000010001000100010001000100010001006E
:100A8000010001000100010001000100010001005E
:100A900001000100010000AF00010101010101019D
:100AA0000101020202020202020202030303030323
:100AB00003030304040404040404050505050506F2
:100AC00006060606070707070708080808090909B0
:100AD000090A0A0A0B0B0B0C0C0C0D0D0D0E0E0E59
:100AE0000F0F0F10101111111212131314141515EA
:100AF00016161717181819191A1A1B1B1C1D1D1E5C
:100B00001E1F2020212222232424252626272829AF
:100B1000292A2B2C2D2D2E2F3031323233343536DD
:100B20003738393A3B3C3D3E3F40414243444546DD
:100B30004748494A4C4D4E4F5051535455565859B9
:100B40005A5B5D5E5F616264656668696B6C6D6F60
:100B50007072737577787A7B7D7E808283858788D3
:100B60008A8C8E8F91939596989A9C9EA0A2A3A50D
:100B7000A7A9ABADAFB1B3B5B7BABCBEC0C2C4C60E
:100B8000C9CBCDCFD1D4D6D8DBDDDFE2E4E7E9EBCA
:100B9000EEF0F3F5F8FAFDFF11241FBECFEFDAE017
:100BA000DEBFCDBF04B603FE27C0809193069091AF
:100BB0009406A0919506B09196068730904BA74079
:100BC000B04BD1F4109293061092940610929506B1
:100BD0001092960614BE84B7877F84BF0FB6F89430
:100BE000A8958091600088618093600010926000F9
:100BF0000FBEE0E0F8E3099512E0A0E0B1E0E4EE1A
:100C0000FDE602C005900D92A436B107D9F726E0A3
:100C1000A4E6B2E001C01D92A339B207E1F70E9439
:100C200015060C94F0360C940000CF93DF93CDB7EB
:100C3000DEB7AE970FB6F894DEBF0FBECDBF84B758
:100C4000877F84BF0FB6F894A89580916000886173
:100C500080936000109260000FBE90E080E80FB6B5
:100C6000F89480936100909361000FBE85B780680F
:100C700085BF85B7806885BF87E193E19093650262
:100C8000809364020E945D280E9403298091E20003
:100C900084608093E2007894809164038823A1F0BB
:100CA0001091E9001F709091EC00892F817090FDE8
:100CB00080E8182B1092E9008091E80083FD0E94E3
:100CC000421D1F701093E90082E084BD93E095BD42
:100CD0009AEF97BD80936E001092D5051092D605BD
:100CE0001092D7051092D8050E94B531811102C02B
:100CF0000E94A6310E944515809304010E9422158E
:100D000081110E94BA3380910401809104018823EB
:100D100011F090E001C095E09093730285E0891B8B
:100D20008093720202E511E0B7E5EB2EB1E0FB2EF5
:100D3000D8018D918D018F3F11F00E944C15E01666
:100D4000F106B1F70CE511E0A2E6EA2EA1E0FA2ED9
:100D5000F80181918F018F3F11F00E944C15E01630
:100D6000F106B1F7E8E6F2E0A2EDB2E011921D92D1
:100D700002E0E237F007D1F70E94D916811102C0D4
:100D80000E94E41682E090E00E9408368093C70239
:100D90000E94C81690936702809366020E946F17A4
:100DA0008FE39CE90197F1F700C000000E946F17E4
:100DB0008091D20280FF08C06FEF7FEF80E090E06B
:100DC0000E9444360E94972A83E090E00E940836F1
:100DD0000E94062310927903E2E9F3E08FEF9FEF80
:100DE00081939193A3E0E23AFA07D1F7109274024B
:100DF000EDE8F2E08DE992E02FEF3FEF21933193A0
:100E00008E179F07D9F70E94D916811104C00E943E
:100E1000E4160E94982F46E050E06CE170E083E712
:100E200093E00E94F835809173038C7F11F40E9447
:100E3000982F0E942215811102C00E94BD330E948A
:100E40002215811102C082E001C080E08093C202BD
:100E500080E88093A3030E944E326DE070E08DE243
:100E600091E00E94DC1C892B09F043C08091C202F2
:100E700063E070E081FD3AC08AE291E00E94DC1CF0
:100E8000892BB9F56DE070E08AE191E00E94DC1CED
:100E9000892B79F50E94F92ADC01CB01805A954112
:100EA000AF4FBF4F8093CA059093CB05A093CC055D
:100EB000B093CD05E6EAF3E080E092E0DF018C013B
:100EC0001D9201501040E1F7F093AD05E093AC05A1
:100ED0008FEF9FEF9093A5038093A40381E080930D
:100EE000CF058093CE051092C30203C087E291E044
:100EF000C5CF85E091E09093D4058093D3059E0102
:100F00002F5F3F4F790180916403853009F056C00F
:100F1000F0E4DF2EBB24B39400E112E1809164037E
:100F2000853009F045C080916403843009F42EC0F7
:100F30008091A102811105C00E946A2480E00E9474
:100F40004132B092A1021092D90548E150E00FB6AB
:100F5000F894A895409360000FBED092600083B7CC
:100F6000817F846083BF83B7816083BF78948895D5
:100F700083B78E7F83BF0FB6F894A89580916000E9
:100F8000886180936000109260000FBE80916303BF
:100F9000882309F4C3CF0E946F17E2EDF2E081913C
:100FA000811170C48CED92E08E179F07C1F7B6CF08
:100FB0000E940E230E947C2B1092A1020E946F17A8
:100FC000D82E81110E94F92AA8ECB2E0E2EDF2E0FD
:100FD00000E010E0802E91908D91892509F4A7C042
:100FE000B12CAA24A394982F9A2109F49BC00E94A3
:100FF00022159A20882399F0B9A28AA281E0911043
:1010000001C080E08BA30E94052B8160782F9DA3F7
:101010008CA349A15AA16BA18DA10E94610CF8017A
:10102000E853FD4F8081A826A082992089F086E0B0
:10103000809FF001819FF00D1124E459FE4FEB0DCC
:10104000F11D80818F3F21F0C82E9924939401C017
:10105000912C092D10E080917402D801A80FB11DC8
:101060001997ACF188E090E05C01A01AB10AB801D0
:101070006F5F7F4F6C587D4FA50185E792E00E941E
:10108000E736B801675F7F4F6C587D4FA5018DE74C
:1010900092E00E94E736A501440F551FB801660F84
:1010A000771F675E7F4F6C587D4F8DE892E00E94FE
:1010B000E736B8016F5E7F4F6C587D4FA50185E81C
:1010C00092E00E94E73688E089198093740280914B
:1010D000740290E0AC2DB0E09D01220F331F285523
:1010E0003E4FAA0FBB1FBD0167557E4F41E0480F21
:1010F0009915A8F490E0FC01EC58FD4FD9015C91E2
:101100005183DB015C915187C18A880F991FFC01D3
:10111000EC58FD4F128E118E91E0842FE7CF809313
:1011200074021BC0B394AA0C26E0B2125CCF0F5F0E
:101130001F4F0A30110509F04DCF8FEF8EA38FA3FB
:1011400018A60E94052B8160782F9AA789A74EA127
:101150005FA168A58AA50E94610C40909D025090F5
:101160009E0260909F027090A0020E942215882328
:1011700039F0C301B2010E94CE2A4B015C0108C0C4
:101180000E943A2B4B015C0184189508A608B70809
:101190000E943A2BAB01BC0140939D0250939E02EA
:1011A00060939F027093A002A0917402E4E7F2E0C2
:1011B0003A2EB0E044244A94542C612C712C4818E7
:1011C00059086A087B08AB1799F0818D928D8C01C4
:1011D00020E030E0401651066206730610F43A949F
:1011E00004C0880D991D928F818FBF5F3296EBCF1F
:1011F000309274028091A102811108C08091730322
:10120000982F937019F08695869501C080E0909193
:1012100049019130E9F028F09230E9F09330F1F093
:1012200049C010924A0140936F035093700360933A
:1012300071037093720389E2E4E7F2E0A9E7B3E097
:1012400001900D928A95E1F781E08093490132C0C7
:101250000E946A242FC00E9441322CC080916E03EC
:10126000882341F046E050E06CE170E083E793E0D2
:101270000E94163610926E0380906F039090700358
:10128000A0907103B09072030E942215882329F068
:10129000C501B4010E94CE2A06C00E943A2B6819EB
:1012A00079098A099B09603171058105910510F062
:1012B000109249018091CF05882309F47DC1809166
:1012C000C4029091C5020E94EA2AC29708F463C042
:1012D0000E94052B9093C5028093C40286EA93E096
:1012E0009093AD058093AC050E942215882309F4E4
:1012F0004EC08CE991E00E94D11982E891E00E94F1
:10130000D1198FE991E00E94D11989E791E00E94FB
:10131000D1198091A2030E940313813059F038F053
:10132000823059F0833069F48AE591E008C080E7A3
:1013300091E005C089E691E002C082E691E00E945A
:10134000D11988E591E00E94D1190E947C2B81FB84
:10135000002700F982FB112710F980FF03C083E505
:1013600091E002C08EE491E00E94D119002319F0AF
:1013700089E491E002C084E491E00E94D119112334
:1013800019F08FE391E005C08AE391E002C082EAA0
:1013900091E00E94D1198091CF05882309F4E1C022
:1013A0002091A4033091A5032115310509F4D9C07A
:1013B0008091C3028111D5C0482E512CAA24A39438
:1013C000B12C082E02C0AA0CBB1C0A94E2F7A9019A
:1013D0004A215B21452B11F48F5FEECF9091C20221
:1013E000920165E0220F331F6A95E1F790FD12C06C
:1013F0008295880F807680931101220F232F221F60
:10140000330B319520931401815E80931201109269
:10141000150112C045E0369527954A95E1F7220F50
:10142000220F220F2093110110921401295F2093A3
:10143000120183E08093150124E630E047E050E09C
:101440006FE071E088E70E940533892B09F089C0BD
:101450008091C20280FD23C0C20125E0880F991F40
:101460002A95E1F7AC014A555C4F04E610E020E212
:1014700030E060E488E70E942C33892B09F071C0CA
:101480000E94FF2BA094B0948091A4039091A50397
:10149000A822B922B092A503A092A40362C080E260
:1014A000E2EAF2E0DF011D928A95E9F785E0440C5B
:1014B000551C8A95E1F7E6E6F1E0FCA7EBA762E6AA
:1014C00071E0ABA5BCA52D91BCA7ABA7FB01819199
:1014D000BF018201080F111DA8014A555C4F3A0156
:1014E00030E02E553D4FF90197E0AF01421B530B01
:1014F00001E001C0000F4A95EAF7130110E0D101A5
:101500008D911D018023492F411B4770942E042E7D
:10151000000C550BB82F01C0BB0F9A94EAF79B2E15
:101520005195419551094770552701C086954A95B7
:10153000EAF7982A8081982A90821F5F1830F9F67E
:10154000915031969F3F89F6EBA5FCA5EA56F140F4
:1015500009F0B7CF04E610E020E230E042EA52E0C2
:1015600088CF8091CE05882339F10E94F92A009115
:10157000CA051091CB052091CC053091CD05DC0139
:10158000CB01801B910BA20BB30B8F3F9F4FAF4F33
:10159000BF4790F48091CF05882371F08091CE05EC
:1015A000882351F062E070E082EE91E00E94DC1C42
:1015B000892B11F41092CE05D1100E94FF2B0E94AE
:1015C0007C2B9091C602891721F00E947C2B80937E
:1015D000C60280916403843009F095CC83E0809347
:1015E000E9008091E80082FF8ECC8091E80085FFC1
:1015F00022C00E947C2881111CC000E210E09E01E4
:101600002F5F3F4F590108C08091F100D5018D93A4
:101610005D010150110969F08091E80085FDF4CF6A
:101620008091E8008B778093E8000E947C288823D3
:1016300099F391E001C090E08091E8008B7780936E
:10164000E800992309F45FCCE9818E2F90E0FC013A
:101650003197E331F10508F0EDC0EA5AFF4F0C94E1
:10166000CD361A8289E058C08A81823009F420C1BF
:10167000833051F0813009F0DDC00E94F92A9B834C
:101680008C837D836E83D8C0FE013396CE010D9688
:10169000A2EDB2E02D9121938E179F07D9F7CCC010
:1016A0008A81823009F0C6C06B817C818D819E81E8
:1016B0000E94D33686E290E024C04C816B818A81FF
:1016C0000E94692C9D83FBC0AD80BE80BA24AB24F0
:1016D000BA248C810B819A81BCE00B9F800111247C
:1016E000E8E79E9F000D111D1124080F111D080F22
:1016F000111D6B2DC80187960E9426366A2DC801E0
:1017000088960E94263698C00E94352C95C080E1AC
:101710004EC081E08A8389EF8B838EC00A811B8152
:101720001027012710278C80912C5701C801895F51
:101730009D4F95012E193F092815390508F07CC0E9
:10174000093FF1E01F0730F40E940836D5011496D6
:101750008C9302C0F50114820F5F1F4FFFEFAF1A89
:10176000BF0AE4CF0A811B811027012710278C8034
:10177000912C5701C801895F9D4F95012E193F0992
:101780002815390508F058C0093F21E0120728F450
:10179000D50114966C910E9426360F5F1F4FBFEF44
:1017A000AB1ABB0AE7CF0E94252C46C084E08A838F
:1017B00043C00A811B811027012710278C80912CA0
:1017C0005701C801879695012E193F09281539053B
:1017D00098F5003EE1E01E0730F40E940836D5017E
:1017E00014968C9302C0F50114820F5F1F4FFFEF18
:1017F000AF1ABF0AE6CF0A811B81102701271027E5
:101800008C80912C5701C801879695012E193F09AC
:101810002815390588F4003E21E0120728F4D50187
:1018200014966C910E9426360F5F1F4FBFEFAB1AC4
:10183000BB0AE9CF8FEF898380916403843009F07C
:1018400062CB1091E9001F709091EC00892F81709C
:1018500090FD80E8182B82E08093E9008091E800F9
:1018600080FF0CC040E050E060E270E0C7010E94E1
:10187000051D8091E8008E778093E8001F7010931B
:10188000E90041CB09BD19BD09B400FEFDCF80912F
:10189000D8008F7D8093D8008091E0008260809393
:1018A000E0008091E00081FDFCCF0E940E2336CB4A
:1018B00086E290E00E9408361B821C821D828E8385
:1018C000BBCF1F93CF93DF93CDB7DEB767970FB62C
:1018D000F894DEBF0FBECDBF4B8B5C8B6D8B7E8BC8
:1018E0008F8B611110921F0386E09E01235F3F4F93
:1018F000D901E82F1D92EA95E9F795E0FE0173966C
:10190000D90101900D929A95E1F79C894E895F89E2
:101910007B897D879E876F87598B488BF901DE0114
:10192000179601900D928A95E1F7CE0107960E94D5
:10193000E62081113EC086E0FE013796DE01119659
:1019400001900D928A95E1F7FF81E8856A857B8594
:101950006115710531F0EF3F31F481E0FF3F19F47B
:1019600003C081E001C080E080FD23C02091EC0233
:1019700030E0C90101968770992740911D0350E01E
:101980008417950779F1F983EA837D836C8396E068
:10199000929FD001939FB00D1124A351BD4FFE0122
:1019A000319601900D929A95E1F78093EC020E9496
:1019B000651716E080911D039091EC028917F9F0EC
:1019C000189FC001112483519D4F0E94E620882357
:1019D000B1F080911D0390E0019687709927809364
:1019E0001D03E8CF0E940E231092EC0210921D03FB
:1019F000E6EEF2E086E0DF011D928A95E9F7679650
:101A00000FB6F894DEBF0FBECDBFDF91CF911F910F
:101A100008955F926F927F928F929F92AF92BF9242
:101A2000CF92DF92EF92FF920F931F93CF93DF93AA
:101A3000CDB7DEB729970FB6F894DEBF0FBECDBF86
:101A4000FC018081918123813481232B31F09F3FE0
:101A500031F491E08F3F19F403C091E001C090E0B0
:101A600090FDBBC57F0185E0DE01119601900D92CE
:101A70008A95E1F7F701228189819A81222349F031
:101A80000E947E20182F682F89819A810E94B4229B
:101A900003C00E948722182F69817A81812F0E94BA
:101AA0008F2C8C01F7018281882309F4E0C498010E
:101AB00022513F452031310508F0EBC08FEF93E014
:101AC0000E940836811189C5025127E0A22E22E02A
:101AD000B22E002379F0A114F4E0BF0609F47DC50D
:101AE000C5010E940836811101C001502FEFA21AD2
:101AF000B20AEFCF1E821F8218861986662463946D
:101B00009AE0592E85010F5F1F4FC5010E940836CC
:101B10008E831F82882309F460C59FEF980F93304E
:101B200060F48F836E8232E0A30EB11CC8010E9464
:101B300008368887811102C050C558018E010A5F9E
:101B40001F4FF80120812223E9F2213009F04CC017
:101B50008181813049F47801F2E0EF0EF11CF80147
:101B600082810E9432240AC0823051F47801F2E06E
:101B7000EF0EF11CF80182810E94B023870186C01C
:101B8000833049F47801F2E0EF0EF11CF801828114
:101B90000E943223F3CF843019F00F5F1F4F76C0BD
:101BA000F80122810E5F1F4F80E090E030E020536B
:101BB00031092A30310568F4589EA001599E500D14
:101BC0001124C901840F951F0F5F1F4FF801208159
:101BD000EDCF009709F45AC0EFE9FFE03197F1F734
:101BE00000C000000197F5CFE22FF0E0EC5EFD4F62
:101BF0007490822F86958695869590E0FC01EC5F27
:101C0000FD4FE4902770F12C022E02C0F594E7946A
:101C10000A94E2F7F1E0EF22FF24FC01EC50FE4FC2
:101C2000C490D12C022E02C0D594C7940A94E2F736
:101C300031E0C322DD24FC01EC51FE4F8490912C55
:101C400002C0959487942A95E2F741E08422992472
:101C5000E114F10419F081EE0E94B023C114D10403
:101C600019F086EE0E94B023872D0E943224CD28E1
:101C700019F086EE0E943223EF2819F081EE0E94BF
:101C80003223892819F08CE20E9432240F5F1F4F03
:101C900058CF0031FFE51F0711F481E005C0013185
:101CA0002FE51207D1F482E00E94FB2229960FB69D
:101CB000F894DEBF0FBECDBFDF91CF911F910F9182
:101CC000FF90EF90DF90CF90BF90AF909F908F905C
:101CD0007F906F905F900C94DF1902365DE51507D9
:101CE00081F4882339F081E00E94FB2282E00E9487
:101CF000FB224EC081E00E94EF2282E00E94EF2290
:101D000047C0033F5CE5150759F190F4083D9CE599
:101D10001907E9F0093DECE51E07A1F1073DFCE5D7
:101D20001F07B1F506E221EE41EE67ED7CE514C038
:101D3000053F2CE5120701F1C8F0063F4CE51407FA
:101D400039F507E225EE46EE66EF7CE505C007E2D1
:101D500025EE45EE68ED7CE5C7010E948C2B3DC465
:101D600006E221EE40EE63EF7CE5F6CF07E225EEDA
:101D700044EE64EF7CE5F0CF06E221EE42EE65EF43
:101D80007CE5EACF08E221E045EE69ED7CE5E4CFB1
:101D9000F7019281992309F453C11092D2050230C0
:101DA000FCE51F0708F436C106312CE5120738F0B0
:101DB00098012A5F3C452930310508F02BC10E946B
:101DC000C816909367028093660200313CE51307C2
:101DD00009F4C3C008F041C008305CE5150709F4F8
:101DE0009AC0F0F404309CE5190709F487C068F440
:101DF0000230FCE51F0709F477C003301C4509F0E9
:101E0000E5C080916602826076C006303CE513072B
:101E100009F46EC008F07BC08091660288606BC0D8
:101E20000C305CE5150709F485C068F40A309CE5C0
:101E3000190709F474C008F079C00E940E2380913C
:101E40006602806858C00E30FCE51F0709F476C0B2
:101E500008F07FC0809166028BC00B3F3CE5130702
:101E600009F44FC018F503315CE5150709F47DC08E
:101E700078F401319CE5190709F473C002311C455F
:101E800009F0A4C00E940E23809166028F7733C0B0
:101E90000531FCE51F0709F472C008F486C00A3F4B
:101EA0001C4509F093C0809167023EC00F3F4CE58E
:101EB000140709F45FC058F40D3F8CE5180709F4C6
:101EC00044C008F43FC08091670282602DC0013099
:101ED000EDE51E0709F475C008F45DC002301D452C
:101EE00009F074C060E06EC080916602816003C03A
:101EF0008091660280618093660268C0809166026C
:101F000011C0809167028260809367025FC08091F8
:101F100066028062F0CF809166028064ECCF80918F
:101F2000660288608460E7CF8160EECF80916602B0
:101F30008E7FE1CF809166028D7FDDCF809166023A
:101F4000877FD9CF8091670218C0809167028D7F0B
:101F5000DBCF809166028F7ECECF809166028F7D2F
:101F6000CACF809166028F7BC6CF80916602877F41
:101F70008B7FC1CF809167028D7F8E7FC5CF80918F
:101F8000660282FB222720F991E0922790FB82F9DA
:101F900090FB83F9B0CF80916702982F9095917054
:101FA0008E7F892B90FB81F9AFCF0E940E23809109
:101FB000660287FB222720F991E0922790FB87F9A0
:101FC0009ACF61E08EE090E00E9426366091660232
:101FD0001091670284E090E00E942636612F82E231
:101FE00090E00E94263629960FB6F894DEBF0FBE09
:101FF000CDBFDF91CF911F910F91FF90EF90DF90B8
:10200000CF90BF90AF909F908F907F906F905F9098
:102010000C940E2306318CE51807C1F5809120033E
:102020008A7A91E009F490E09093DC02882311F021
:1020300065E301C069E28DED92E00E94622B0FC062
:1020400006315CE5150709F062C08091DC02882347
:1020500009F41CC265E38DED92E00E94552B299690
:102060000FB6F894DEBF0FBECDBFDF91CF911F91A9
:102070000F91FF90EF90DF90CF90BF90AF909F9027
:102080008F907F906F905F900C944E1701154CE5E8
:102090001407D9F00E3D1C4509F053C029960FB620
:1020A000F894DEBF0FBECDBFDF91CF911F910F918E
:1020B000FF90EF90DF90CF90BF90AF909F908F9068
:1020C0007F906F905F900C94E4160E940E238FEF28
:1020D00094E3ECE081509040E040E1F700C0000064
:1020E00029960FB6F894DEBF0FBECDBFDF91CF911A
:1020F0001F910F91FF90EF90DF90CF90BF90AF9026
:102100009F908F907F906F905F900C94972A809112
:10211000200382720A3C3CE5130709F435C208F437
:10212000B7C10F3C2CE5120709F43FC208F4E0C127
:10213000063DFCE51F0708F4EDC10D351D4509F40A
:102140004CC2F70100811181992349F0C8010E9416
:102150007E20D82E682FC8010E94B42204C0C80176
:102160000E948722D82EB8018D2D0E948F2C0E94AC
:102170006315082FC82EF70122814581342F32952F
:102180003F70D92ED2948FE0D8228D2C912CFCE078
:102190008F16910408F04FC1F401E759FF4F0C94DA
:1021A000CD36892F807F9F70192F882311F01295CB
:1021B000107F2223B9F0112309F429C180E2800F96
:1021C000883010F0C11006C090912003192B109395
:1021D000200305C090911F03192B10931F030E9429
:1021E0004E1715C1802F0E943223112309F423C1F9
:1021F000005E1095083010F0C11006C090912003C9
:1022000019231093200305C090911F0319231093E5
:102210001F030E944E170FC1592F507F892F8F70B7
:10222000503211F08295807F51E0C5120AC02223FE
:1022300021F0363008F0FFC00DC0353008F0FBC08B
:1022400019C0222351F0332329F040FFE0C04F7022
:10225000F70145830E942823EEC0332359F0093348
:1022600009F0E6C0FFEF27EE33E0F15020403040A8
:10227000E1F7DCC00E941D23DEC0892F8370A9F521
:102280002111DEC0802F829586958770880F880F78
:10229000202F2F70082E01C0220F0A94EAF704FFA6
:1022A00009C04FE050E001C0440F8A95EAF7842F3F
:1022B000809501C080E096959695492F43704230F5
:1022C00069F088F490912103413019F0822B892321
:1022D00002C0922B892B0E940623B2C0822B9091C0
:1022E00021038927F8CF822BF6CF222319F0892FDB
:1022F000817001C08695882309F4A2C0802F829541
:1023000086958770880F880F202F2F70082E01C0A8
:10231000220F0A94EAF704FF09C04FE050E001C021
:10232000440F8A95EAF7842F809501C080E0969546
:102330009695492F4370423059F078F49091A2035A
:10234000413019F0822B892309C0922B892B06C0BA
:10235000822B9091A203892701C0822B0E94E02248
:102360006FC0192F1F70222339F0812F0E94FB228A
:10237000802F0E94282364C0802F0E941D23812F5C
:102380000E94EF225DC0802F41EF041709F1401732
:1023900020F050EF051741F036C0E2EF0E17F9F0CC
:1023A000F3EF0F1719F12FC0222379F0353008F021
:1023B00042C0292F2F7181E090E001C0880F2A953B
:1023C000EAF79091A20389271BC03630A0F5F1CF20
:1023D000222339F0892F8F710E94FB222CC02223E7
:1023E000C9F3892F8F710E94EF2225C0222339F073
:1023F0009F7181E001C0880F9A95EAF701C080E0E3
:102400000E94E02218C0222331F0332319F3802FD9
:102410000E94B02310C0332321F3893349F42FEFF6
:1024200037EE43E0215030404040E1F700C000006B
:10243000802F0E94322388EF8D0D843008F0CDC0AC
:1024400029960FB6F894DEBF0FBECDBFDF91CF91B6
:102450001F910F91FF90EF90DF90CF90BF90AF90C2
:102460009F908F907F906F905F900C947C2B0031A9
:102470003FE5130721F481E00E94EF2217CC0131E0
:102480004FE5140709F029CC82E0F6CF69E2E3CDED
:10249000053C5CE5150709F463C0A8F4033CFCE5C2
:1024A0001F07F1F108F041C0023C1C4509F049CE7C
:1024B0008091730391E089278093730310924901FF
:1024C00090936E038AC0073C4CE5140709F452C090
:1024D00008F44BC0083CECE51E0709F450C0093C69
:1024E0001C4509F02ECE43E351E36FE371E321C0B5
:1024F0000C3C4CE5140709F451C008F44AC00D3CEB
:102500008CE5180709F44FC00E3C1C4509F019CEA4
:1025100085E04CC0013D1C4508F05FC082E146C02B
:1025200045E751E36EE771E304C04EE751E365E729
:1025300071E329960FB6F894DEBF0FBECDBFDF91D1
:10254000CF911F910F91FF90EF90DF90CF90BF90B0
:10255000AF909F908F907F906F905F900C94CE3152
:1025600043E651E36CE671E3E4CF4CE651E363E606
:1025700071E3DFCF4BE451E367E571E3DACF47E581
:1025800051E36BE471E3D5CF4FE351E363E371E3D0
:10259000D0CF45EF50E361E071E3CBCF41E051E3B1
:1025A00065EF70E3C6CF81E001C08DE029960FB6DC
:1025B000F894DEBF0FBECDBFDF91CF911F910F9179
:1025C000FF90EF90DF90CF90BF90AF909F908F9053
:1025D0007F906F905F900C94C51C29960FB6F8946D
:1025E000DEBF0FBECDBFDF91CF911F910F91FF9046
:1025F000EF90DF90CF90BF90AF909F908F907F90A3
:102600006F905F900895982F92959F7019F0892F81
:1026100024E001C020E0982F9695969511F02E5F4A
:10262000892F982F969509F02F5F822F089580E0CB
:1026300008959091660292FF0DC0282F28712830CE
:1026400019F4877F846006C0282F2471243011F488
:102650008B7F886093FF0DC0282F2871283119F4D3
:10266000877E846106C0282F2471243111F48B7E6B
:1026700088612091670220FF0DC0382F38713830F3
:1026800019F4877F816006C0382F3171313011F421
:102690008E7F886021FF0DC0282F2871283119F402
:1026A000877E816106C0282F2171213111F48E7E31
:1026B000886194FD877E0895AF92BF92CF92DF929A
:1026C000EF92FF920F931F93CF93DF937C015B01F7
:1026D0006A01809157038A3018F001E010E002C0CF
:1026E0000AE010E0C1E0D0E0F894B501C701F601BE
:1026F00009957894811115C021960C171D0794F047
:10270000CC9F9001CD9F300D300D112480E090E0E2
:1027100045E34A95F1F70000019682179307C1F748
:10272000E3CF81E0DF91CF911F910F91FF90EF9068
:10273000DF90CF90BF90AF900895CF93DF9300D0FC
:1027400000D0CDB7DEB760914F03709150038091F8
:102750005103909152030E94CE2A6436710581057F
:10276000910580F10E943A2BDC01CB010296A11D5C
:10277000B11D89839A83AB83BC838091370190918B
:102780003801875C9C4F4091360150E0453051053F
:1027900010F044E050E0BE016F5F7F4F0E94E736CB
:1027A00083E090E00E94C734892B11F080E00BC0D9
:1027B0000E94F92A60934F03709350038093510352
:1027C0009093520381E00F900F900F900F90DF9144
:1027D000CF910895CF92DF92EF92FF920F931F93C4
:1027E000CF93DF93C82F7B01D42F6901FB01608158
:1027F0007181828193810E94CE2A643671058105A0
:10280000910510F4DD2349F10C2E000CDD0B0115B0
:102810001105A9F08AE08C9FF0018D9FF00D112425
:10282000EA5EFE4F83819481875C9C4F428150E039
:102830000417150708F4A801B6010E94E736CE0177
:102840000E94C734892B11F080E008C00E94F92A49
:10285000F701608371838283938381E0DF91CF915D
:102860001F910F91FF90EF90DF90CF9008950F93FD
:102870001F93CF93DF93CDB7DEB727970FB6F894AA
:10288000DEBF0FBECDBF86E0E3E7F3E0DE011196C9
:1028900001900D928A95E1F78091A1028F8347E024
:1028A00050E068E473E0CE0101960E94DA3641E020
:1028B000892B09F440E007E010E09E012F5F3F4FB5
:1028C00063E573E084E00E94EA1327960FB6F8945C
:1028D000DEBF0FBECDBFDF91CF911F910F91089545
:1028E0000F931F93CF93DF93EC0145E050E06FE32C
:1028F00073E00E94DA3641E0892B09F440E005E0FC
:1029000010E09E0165E373E082E00E94EA13DF912C
:10291000CF911F910F910895EF92FF921F93CF9344
:10292000DF9300D000D000D0CDB7DEB77B0180E0D0
:1029300090E00E94C734892B09F058C040911B01D8
:1029400050E04115510511F041E050E060911C014B
:1029500070911D01675C7C4FCE0106960E94E736A0
:10296000609131037091320380913303909134036D
:102970000E94CE2A643671058105910538F48AE3F8
:1029800093E00E94AE1C9E81891791F181E090E056
:102990000E94C734892BA1F44091250150E04630B4
:1029A000510510F045E050E060912601709127013B
:1029B000675C7C4FCE0101960E94E73611E001C0B2
:1029C00010E08AE393E00E94AE1C91E02E81281370
:1029D00090E0192311F10E94F92A6093310370935A
:1029E000320380933303909334030CC010E001C092
:1029F00011E085E0EAE3F3E0DE01119601900D922B
:102A00008A95E1F7112349F085E0FE013196ACE2A9
:102A1000B3E001900D928A95E1F785E0ECE2F3E0F6
:102A2000D70101900D928A95E1F7812F26960FB676
:102A3000F894DEBF0FBECDBFDF91CF911F91FF9005
:102A4000EF90089580912B03811118C08091D800D8
:102A500080618093D8008AE18A95F1F700C0809167
:102A6000D90080FD02C082E001C081E080932B0389
:102A7000823021F40E945D281092640381E09091DD
:102A80002B03913009F080E0089586988E988FB1DD
:102A900086FB882780F90895F894E82FE295EF7077
:102AA000F0E031A1282F2F7081E090E001C0880F65
:102AB0002A95EAF7982F9095932391A392A1892BB9
:102AC00082A378940895CF93DF938238910569F1BA
:102AD000B0F48133910509F46FC048F4893291054F
:102AE00009F465C08A32910509F46BC06FC0853363
:102AF000910509F457C089339105B9F067C0833E49
:102B0000910571F138F4803E9105B1F0823E910556
:102B100011F15CC0863E9105B9F1873E9105C9F17E
:102B2000843E910509F052C024C02091660220FD28
:102B300018C121FD16C14AC08091660280FD0BC1FB
:102B40008091670280FF0DC18091660284FD00C103
:102B500083EE90E01AC18091660282FFFFC0F4CF3D
:102B60008091660282FDFAC08091670280FDF9C003
:102B7000EBCF8091670281FFFAC08091660284FDED
:102B8000E7C087EE90E001C18091660283FFECC050
:102B9000F4CF8091660283FDE7C08091670281FDDA
:102BA000E6C0EBCF8091660285FDE4C0E6C080916F
:102BB000660285FDE2C0DEC08091660286FDE0C04F
:102BC000E2C08091660286FDDEC0DAC0811522E592
:102BD000920780F5811531E5930708F088C08115CB
:102BE00040E29407D0F4811521E0920708F0CDC0AF
:102BF000853A910550F48430910508F0C6C00197DC
:102C000009F0A6C081E090E0C0C09C01205E3109BF
:102C10002830310508F09CC0B8C0811530E4930716
:102C200008F496C0811540E5940708F042C09F70F3
:102C3000906AABC0811529E5920728F5811538E522
:102C4000930708F06FC0811543E5940708F454C05A
:102C5000811524E5920708F07BC09C01237033277F
:102C600041E050E002C0440F551F2A95E2F7282F9B
:102C70002695269580E2289F90011124CA01822B77
:102C8000932B9A6882C0EC0181153AE5930708F40A
:102C90004EC090568115904208F05AC08D2F8F710A
:102CA0000E941913282F2F71CE0199279062922B21
:102CB0006CC09C0154E0369527955A95E1F7922F08
:102CC0009370482F437021E030E002C0220F331F81
:102CD0004A95E2F73C68392B982F9F709695969508
:102CE00040E2949FC0011124822B932B4EC0982F59
:102CF0008827816F906A49C09C012370332741E087
:102D000050E002C0440F551F2A95E2F7282F269560
:102D1000269580E2289F90011124CA01822B932BD3
:102D20009C6833C0982F8827806F906A2EC08F7060
:102D30000E94191394E0D695C7959A95E1F7CF7044
:102D4000D0E0DC2FCC27D0699E01282BC9011DC003
:102D500080E090E01AC089E390E017C082EE90E036
:102D600014C080EE90E011C086EE90E00EC084EEBC
:102D700090E00BC089E290E008C085E390E005C0D8
:102D80008AE290E002C081E390E0DF91CF91089564
:102D9000CF9384E090E00E940836C82F82E290E052
:102DA0000E9408362C2F30E0A901582BCA01CF9180
:102DB000089580E090E00E941036893E9E4F11F405
:102DC0000C94B53180E0089569EE7EEF80E090E0EC
:102DD0000E94443660E082E090E00E94263660E087
:102DE00083E090E00E9426361092210360E084E0A8
:102DF00090E00E94263660E082E290E00E94263653
:102E000060E085E090E00E94263660E086E090E099
:102E10000E9426366FEF87E090E00E94263640E061
:102E200050E0BA0188E090E00E94383660E08DE022
:102E300090E00E94263640E050E0BA0188E190E040
:102E40000E94383660E087E190E00E94263640E03C
:102E500050E0BA018CE190E00E94383660E070E00A
:102E600080E290E00E94443640E050E0BA0188E100
:102E700090E00E94383680E00E9488310E94A6319E
:102E800040E050E0BA018FE090E00E94383640E028
:102E900050E0BA0183E190E00C9438369091200321
:102EA00080911F03892B90911E03892B8093DD0253
:102EB000E091D305F091D405309731F00280F38191
:102EC000E02D8DED92E00994089580911D0390917D
:102ED000EC02891719F08F5F8770FBCF08959F92DE
:102EE000AF92BF92CF92DF92EF92FF920F931F9318
:102EF000CF93DF93CDB7DEB72F970FB6F894DEBF31
:102F00000FBECDBF9E012F5F3F4F79018AE0D901EF
:102F10001D928A95E9F702E511E05901CC24C3948A
:102F2000D12CF80180818F3F09F447C0F894E82F35
:102F3000E295EF70F0E021A18F70A60102C0440F6E
:102F4000551F8A95E2F7CA01922F982B91A392A15F
:102F50008095892382A3789400C0ECE5F1E020E01D
:102F600030E0912C41914F3FB1F0A42FA295AF706A
:102F7000B0E090968C9190E04F7002C09595879547
:102F80004A95E2F780FD07C08C2D022E01C0880F04
:102F90000A94EAF701C080E0982A2F5F3F4F26305D
:102FA000310501F7D8018C918F3F11F00E944C152B
:102FB000B0EABA95F1F7F50190820F5F1F4FFFEF6E
:102FC000AF1ABF0A21E00735120709F0AACF4AE07D
:102FD00050E0B70188E692E00E94DA368C01892B36
:102FE00041F08AE0F701A8E6B2E001900D928A95DF
:102FF000E1F7F09073020115110549F081E080932B
:1030000024030E94052B9093230380932203809135
:1030100024038823B1F080912203909123030E941E
:10302000EA2A059770F0A8E6B2E0EF2DF0E0EE5244
:10303000FD4F8D91819332E0AD36B307D1F71092F9
:1030400024030115110509F0EBC00E942215E0913F
:103050007302882309F474C07E014BE0E40EF11C76
:1030600085E0D7011D928A95E9F70E2F10E00E52E8
:103070001D4F809157038A3048F44CE854E1B70162
:10308000C8010E945C13882331F10AC08091250396
:10309000909126030E94EA2A843F914070F72CC049
:1030A00040E754E1B701C8010E945C13882399F0FE
:1030B0004DE953E1B701C8010E945C13882359F020
:1030C00047E354E1B701C8010E945C13882319F05B
:1030D0001092570319C0809157038F3F19F08F5FEB
:1030E00080935703809157038A3070F00E94052B1C
:1030F0009093260380932503E0917202F0E0EE5254
:10310000FD4F80E090E015C0E0917202F0E0EE52D9
:10311000FD4FD7019E01205F3F4F00E08D919081D0
:10312000981711F0808301E031962A173B07B1F719
:1031300079C01192019685309105D9F701E072C0EE
:10314000F0E0EE52FD4FE09072028E2D90E09C0177
:103150002E523D4F7901F89485E0AAE3B3E0019047
:103160000D928A95E1F78AE393E00E94AE1C80936A
:1031700039037894F89485E0EFE3F3E0D701019008
:103180000D928A95E1F77894F894C0904403D0901A
:103190004503E0904603F090470380912703909108
:1031A0002803A0912903B0912A03C816D906EA067C
:1031B000FB06D1F0C0922703D0922803E0922903A6
:1031C000F0922A030E94221581110EC00E94F92A52
:1031D000C61AD70AE80AF90AC092D505D092D605D0
:1031E000E092D705F092D8057894F89486E0E8E468
:1031F000F3E0A3E7B3E001900D928A95E1F7F09038
:103200004E03FF2049F08091A102811105C00E9468
:103210006A2480E00E944132F092A102789402C0B8
:1032200001E010E0802F2F960FB6F894DEBF0FBE9E
:10323000CDBFDF91CF911F910F91FF90EF90DF9065
:10324000CF90BF90AF909F900895CF93DF93C091A0
:10325000AC05D091AD058A30B1F42091A303CE0125
:10326000865A9340622F70E00E947F35281B822F80
:1032700066E00E94AD36C82FC15008F48FC080E2CE
:103280000E942519F9CF8D30E9F4C65AD340209118
:10329000A303622F70E0CE010E947F35281B822F8E
:1032A0009E01280F311D2115324018F080E0C0E04A
:1032B000D0E0C80FD11DCA55DC4FD093AD05C093E7
:1032C000AC056CC096E0FE01A6EAB5E001900D9257
:1032D0009A95E1F7803E30F086E0FE0111928A95E2
:1032E000E9F70BC0F6E08F9FB00111246A587C4FBC
:1032F00046E050E0CE010E94EF35C091AC05D09180
:10330000AD0546E050E0BE0186EA95E00E94DA365F
:10331000892B49F19E01265A3340A90185E0569533
:1033200047958A95E1F781E090E0BC0102C0660F05
:10333000771F4A95E2F74091A4035091A503462BCD
:10334000572B2B5F3F4F65E0369527956A95E1F740
:1033500002C0880F991F2A95E2F7842B952B909332
:10336000A5038093A4039E01205A33404091A303F8
:10337000642F70E0C9010E947F35481B463010F46D
:10338000240F311D211582E0380710F020E030E0D5
:103390002A553C4F3093AD052093AC05DF91CF917A
:1033A0000895CF93DF93EC01FE018491882321F0EF
:1033B0000E9425192196F8CFDF91CF910895809131
:1033C000A203982F9670963011F4886001C0877F11
:1033D0000C94E0222F923F924F925F926F927F92D5
:1033E0008F929F92AF92BF92CF92DF92EF92FF9215
:1033F0000F931F93CF93DF93CDB7DEB727970FB609
:10340000F894DEBF0FBECDBF282E4B0120914A019C
:103410008CE0289F802D11248E83182F145F1D337C
:1034200008F01CE33091790339839E81911708F0ED
:103430007CC08E81682E712CF301E05EFD4F90817F
:1034400080914B01892309F46CC030907403409043
:103450007503522C1F82C301880F991FDC01A855E8
:10346000BE4FBB83AA83C301880F991FFC01E75598
:10347000FE4FFD83EC83F9815F1608F040C0E52C18
:10348000F12CAA81BB81CC90D12CF701E758FC4FDD
:103490008181C81AD108AC81BD81AC90B12C8185E5
:1034A000A81AB108CC9C9001CD9C300D300D112490
:1034B000AA9CC001AB9C900D900D1124820F931F0C
:1034C0000E94F52F082F6091770321E0620F08F426
:1034D0006FEFF701EE0FFF1FE758FC4F818D928DC4
:1034E0000E944F307C019501A601632D742D8F81C0
:1034F000F4010995362E472E8F835394BCCF20912B
:1035000076038F81382F329F312D1124832F632D25
:10351000742D0E945930462F282F672FC3010E9417
:103520006A2F8E818F5F8E8380CF81E01C3308F0FD
:1035300080E027960FB6F894DEBF0FBECDBFDF91B7
:10354000CF911F910F91FF90EF90DF90CF90BF90A0
:10355000AF909F908F907F906F905F904F903F9033
:103560002F900895CF92DF92EF92FF920F931F93C7
:10357000CF93DF938C01C0914A018CE0C89FC02D8E
:103580001124DCE0DC0FDD3308F0DCE3209177036D
:1035900031E0230F08F42FEF30E040E050E06FEF10
:1035A0007FEF80E090E00E944A367901CD1708F065
:1035B00041C0CC2ED12CF601E05EFD4F9081809170
:1035C0004B018923A9F190917903915097FD15C082
:1035D000492F092E000C550BFA01E758FC4F818941
:1035E000C813F3CF440F551FFA01E758FC4F218D44
:1035F000328D2E153F0548F701C097016091770382
:1036000041E0640F08F46FEFC9010E944F30AC0134
:10361000609174037091750380917603F8010995A8
:103620000E945930462F282F672FC6010E946A2F0B
:10363000CF5FBCCF81E0DC3308F080E0DF91CF9139
:103640001F910F91FF90EF90DF90CF900895DF9240
:10365000EF92FF920F931F93CF93DF938C01C09152
:103660004A018CE0C89FC02D1124DCE0DC0FDD3363
:1036700008F0DCE3609177036695669521E0620FC0
:1036800008F46FEF80916F03909170030E944F30A8
:10369000D82ECD17F0F4EC2EF12CF701E05EFD4FA3
:1036A000908180914B01892391F060917403709116
:1036B0007503809176032D2D4C2FF80109950E94FA
:1036C0005930462F282F672FC7010E946A2FCF5FDE
:1036D000E0CF81E0DC3308F080E0DF91CF911F91F3
:1036E0000F91FF90EF90DF9008959F92AF92BF925D
:1036F000CF92DF92EF92FF920F931F93CF93DF93BE
:103700006C01C0914A018CE0C89FC02D1124DCE0FF
:10371000DC0FDD3308F0DCE3609177036695669596
:1037200080916F03909170030E944F30182F80E4B6
:10373000810F0E94B02F90E8F92EF80E812F0E9481
:10374000B02F20E8922E980ECD1700F5AC2EB12C9C
:10375000F501E05EFD4F908180914B018923A1F03E
:10376000609174037091750380917603E12E0C2FA4
:10377000292D4F2DF60109950E945930462F282FEB
:10378000672FC5010E946A2FCF5FDECF81E0DC3357
:1037900008F080E0DF91CF911F910F91FF90EF90A3
:1037A000DF90CF90BF90AF909F9008956F927F92DF
:1037B0008F929F92AF92BF92CF92DF92EF920F9330
:1037C0001F93CF93DF933C01C0914A018CE0C89FC7
:1037D000C02D1124DCE0DC0FDD3308F0DCE3609168
:1037E0007703669580916F03909170030E944F302C
:1037F000182FCD1708F044C08C2E912CF401E05EF8
:10380000FD4F908180914B018923C1F1F401EE0FAE
:10381000FF1FE855FE4FC080D12C80E7C81AD108A1
:10382000F401EE0FFF1FE459FE4FA5ACB12CE0E20E
:10383000AE1AB108CC9C9001CD9C300D300D1124F6
:10384000AA9CC001AB9C900D900D1124820F931F78
:103850000E94F52F082F6091740370917503809179
:103860007603E12E9501A601F30109950E945930D6
:10387000462F282F672FC4010E946A2FCF5FB9CF30
:1038800081E0DC3308F080E0DF91CF911F910F9150
:10389000EF90DF90CF90BF90AF909F908F907F90F0
:1038A0006F900895CF92DF92EF92FF920F931F9344
:1038B000CF93DF936C01C0914A018CE0C89FC02D6B
:1038C0001124DCE0DC0FDD3308F0DCE360917703EA
:1038D000669580916F03909170030E944F30182F6E
:1038E000CD1778F5EC2EF12CF701E05EFD4F9081BD
:1038F00080914B01892319F1F701EE0FFF1FE45965
:10390000FE4F25AD30E020523109F701EE0FFF1FC9
:10391000E855FE4F408150E04057510960917403D3
:103920007091750380917603012FF60109950E942D
:103930005930462F282F672FC7010E946A2FCF5F6B
:10394000CFCF81E0DC3308F080E0DF91CF911F9191
:103950000F91FF90EF90DF90CF900895FC01AC01A4
:103960004B5F5F4F8FEF91E32191822728E030E09A
:1039700087FF03C0880F892701C0880F21503109B4
:10398000B9F7E417F50781F70895909173039370E1
:1039900091F0811102C0946007C0883210F09C69D8
:1039A00003C0880F880F982B9093730310924901DE
:1039B00081E080936E030895EF92FF920F931F931F
:1039C000CF93DF93EC017B0164E670E088E70E940F
:1039D00054328C01EC0EFD1ECE15DF0561F017FD93
:1039E0000AC0FE01849164E670E00E94D5328C0129
:1039F0002196892B89F30E945933C801DF91CF9119
:103A00001F910F91FF90EF900895EF92FF920F9307
:103A10001F93CF93DF937C018B010E947C2881113F
:103A200019C0E70101151105A1F08091E80085FD9D
:103A30000AC08091E8008E778093E8000E947C287D
:103A4000882381F307C089918093F1000150110907
:103A5000E9CF80E0DF91CF911F910F91FF90EF9020
:103A6000089590917303937061F080937403609351
:103A70007503473908F046E94093760381E0809367
:103A80006E0308951F93CF93DF93CDB7DEB7AA9748
:103A90000FB6F894DEBF0FBECDBFE6E6F3E08EE6CC
:103AA00093E02091F10021938E179F07D1F7809129
:103AB0006703833009F460C030F4813071F08230E4
:103AC00009F49AC0B1C08A3009F486C08B3009F479
:103AD0006BC0893009F0A8C020C080916603813A8C
:103AE00009F0A2C08091E800877F8093E800809170
:103AF0006A0390916B03892B21F468E08AE593E0D7
:103B000003C060E080E090E070E00E94392A80917C
:103B1000E8008B778093E80087C08091660381324C
:103B200009F082C080916A0390916B03892B09F0A0
:103B30007BC08091E800877F8093E8008091E80057
:103B400082FD05C0809164038111F8CF6DC0209182
:103B5000F3008091F20090E0922B029729F480917B
:103B6000F1008B7F813021F48091F1008093590323
:103B70008091E8008B7754C080916603813A09F008
:103B800053C080916A0390916B03892B09F04CC05C
:103B90008091E800877F8093E8008091E80080FFB3
:103BA000FCCF8091480137C0809166038132E1F5F6
:103BB00080916A0390916B03892BB1F58091E800A5
:103BC000877F8093E8000E94AF28809168038093EC
:103BD00048010E940E2328C080916603813221F59E
:103BE0008091E800877F8093E8000E94AF28809151
:103BF00069038093580318C080916603813AA1F449
:103C00008091E800877F8093E8008091E80080FF42
:103C1000FCCF809158038093F1008091E8008E776B
:103C20008093E8000E94AF288091E80083FFD2C112
:103C30008091660390916703492F50E04A30510507
:103C400008F0C8C1FA01EB58FF4F0C94CD3680380C
:103C500021F0823809F0BEC108C0809162039091C2
:103C60006303992389F082600FC080916A038F708B
:103C7000873008F0AFC18093E9008091EB0085FBAD
:103C8000882780F91092E9009091E800977F90933F
:103C9000E8008093F1001092F10066C1282F2D7F7B
:103CA00009F098C1882319F0823061F093C18091A6
:103CB0006803813009F08EC1933009F080E0809371
:103CC00063032EC08091680381112AC080916A032A
:103CD0008F702FEF280F263008F07CC18093E90009
:103CE0002091EB0020FF1CC0933021F48091EB0069
:103CF000806214C09091EB0090619093EB0021E002
:103D000030E0A90102C0440F551F8A95E2F74093A5
:103D1000EA001092EA008091EB0088608093EB004B
:103D20001092E9008091E800877F21C1811152C182
:103D3000109168031F778091E3008078812B809336
:103D4000E3008091E800877F8093E8000E94AF281D
:103D50008091E80080FFFCCF8091E3008068809331
:103D6000E300111102C082E001C083E0809364038C
:103D700031C18058823008F02DC180916803909144
:103D800069038C3D53E0950779F583E08A838AE2E5
:103D900089834FB7F894DE01139620E03EE051E2AC
:103DA000E32FF0E050935700E49120FF03C0E29529
:103DB000EF703F5FEF708E2F90E0EA3010F0C79603
:103DC00001C0C0968D939D932F5F243149F74FBF5B
:103DD0008091E800877F8093E8006AE270E0CE017E
:103DE00001960E94392AAEC040916A0350916B033C
:103DF000292F332723303105A9F068F4213031050C
:103E000009F4F7C02230310509F0E4C082E490E003
:103E1000E6EFF2E044C02132310521F122323105D2
:103E200071F1D8C0992781309105A1F058F002971F
:103E300009F0D0C0EAE4F3E0E4918E2F90E0EAE4E8
:103E4000F3E02AC0E2E7F3E0E4918E2F90E0E2E7AE
:103E5000F3E022C0E4E6F3E0E4918E2F90E0E4E6A4
:103E6000F3E01AC04115510509F4C8C041305105AD
:103E700009F0B0C089E090E0E1E2F3E010C0411544
:103E8000510509F4C0C04130510509F0A3C082E2D8
:103E900090E0E4E9F2E003C0009709F49BC02091B0
:103EA000E800277F2093E80020916C0330916D0398
:103EB0008217930708F49C0140E02115310589F130
:103EC00080916403882309F43DC08530D9F1809145
:103ED000E80083FD37C08091E80082FD2FC080910B
:103EE000E80080FFEACF4091F3008091F20090E07B
:103EF000942B2115310559F08830910540F44491F7
:103F00004093F1003196215031090196F2CF41E002
:103F1000089709F040E08091E8008E778093E800F0
:103F2000CCCF4111CDCF0AC080916403882351F0DA
:103F3000853041F08091E80083FD04C08091E80065
:103F400082FFF2CF8091E8008B778093E80042C037
:103F5000803809F03FC08091E800877F8093E800B7
:103F6000809165038093F1008091E8008E778093C3
:103F7000E8000E94AF282EC081112CC080916803F8
:103F800090916903992702972CF58091E800877F2B
:103F90008093E80010916803109365030E94AF2896
:103FA000111106C08091E30087FD02C081E001C0CD
:103FB00084E08093640342E061EC81E00E94CE28BB
:103FC00042E261EC82E00E94CE2842E260EC83E0B3
:103FD0000E94CE288091E80083FF1AC08091E800FB
:103FE000877F8093E8008091EB0080628093EB00F4
:103FF0000FC082E190E0E8E3F3E051CF89E090E088
:10400000E8E0F3E04CCF80E490E0E6EBF2E047CF6D
:10401000AA960FB6F894DEBF0FBECDBFDF91CF9149
:104020001F9108950F931F93CF93DF938091EB021D
:1040300082958F7009F05DC08091E802882309F4B1
:1040400058C080911D031091EC026091E6027091BE
:10405000E702C091E902D091EA0291E06F3F09F0D6
:1040600090E0292F06E0811709F443C0209721F042
:104070007F3F21F030E003C031E001C0322F90E0FB
:1040800030FD34C0089FF001099FF00D1124DF01BD
:10409000A351BD4F11963C911197371327C03C9106
:1040A000361324C012963C91129731111FC01396FB
:1040B0004D915C9114974C1B5D0B483C5105B0F43D
:1040C0008091EB028F7080618093EB02EE50FD4F88
:1040D00080818F708061808386EE92E00E94090D5E
:1040E000DF91CF911F910F910C9465170196877006
:1040F000BACFDF91CF911F910F910895CF92DF92A8
:10410000FF920F931F93CF93DF936C010091A20353
:1041100080912103082BC7E0D0E010E0C8010C2EED
:1041200002C0959587950A94E2F780FD04C0219717
:10413000A8F7F12C09C0FC2EB6018C2F0E948F2C01
:104140000E946315019799F38F2DDF91CF911F91F5
:104150000F91FF90DF90CF900895CF93DF93EC0104
:104160000E947E20BE010E948F2C0E946315DF9169
:10417000CF910895FC01808191810E94AD20292F6B
:104180002F70E92FE295EF704E2F50E0FA01329731
:10419000EE30F105B8F4E158FF4F0C94CD36803F76
:1041A00099F018F4883E70F40FC0843F59F40CC0A5
:1041B000883E50F0813F31F407C0822F8695869566
:1041C0008695089580E0089581E008959F92AF92CA
:1041D000BF92CF92DF92EF92FF920F931F93CF93F4
:1041E000DF93CDB7DEB761970FB6F894DEBF0FBE91
:1041F000CDBF8C0185E0F801DE011D9601900D9286
:104200008A95E1F7F801E2809091E6026091E70279
:104210004091E9025091EA024115510531F06F3F9A
:1042200031F481E09F3F19F403C081E001C080E0D8
:10423000F82FF1709F2E80FD1AC1F8013081218185
:10424000C380D48086EEA82E82E0B82EF090E802DB
:10425000F601E41BF50BFF2009F4C6C08091EB02C8
:10426000E83CF10508F091C0482F407F09F050C0AC
:10427000621311C093130FC0FE2CE1100CC08F709D
:1042800080618093EB02C5010E94090D8091EB02D1
:10429000F801858329C1CD2831F02F3F31F481E029
:1042A0003F3F19F403C081E001C080E080FD03C0FE
:1042B00081E08E2502C080E090E0F82FF170FF2EA3
:1042C00080FF1CC080911D034091EC0256E08417D2
:1042D00009F4E8C090E0589FF001599FF00D1124B7
:1042E000E351FD4F6181261306C06081631303C053
:1042F0006281E61203C001968770E9CFFE2CEE20A2
:1043000009F4F2C08091EB0281608093EB0249C016
:10431000621306C0931304C0E11002C0F80186C006
:10432000C8010E94BA20882351F1EE2041F120916A
:10433000EB02822F82958F7090E0029774F080914B
:10434000E6029091E70298878F831986DB86CA86FA
:104350002C87CE0107960E94090D86E0F801A6EE93
:10436000B2E001900D928A95E1F70E9412200AC0F6
:104370006217C9F0C8010E94BA2081111EC0C8018D
:104380000E94090DFF24F394AFC0482F407F81F7AE
:1043900086EE92E00E94090D86E0F50111928A9561
:1043A000E9F7F12CA1C09313E5CFE110E3CFF801B9
:1043B0008583C8010E94090D54C0EE2001F32091AD
:1043C000EB02822F82958F7090E0029734F28091F9
:1043D000E6029091E7029A8389831B82DD82CC8278
:1043E0002E83CE010196B7CFE83CF105D0F5FE2C27
:1043F000EE2029F2621327C0931325C02091EB020F
:1044000020FD18C0822F82958F70482F50E04115F3
:10441000510581F0F80125834F30510541F08F5F40
:10442000982F9295907F822F8F70892B8583C8015A
:104430000E94090D86E0F801A6EEB2E001900D920F
:104440008A95E1F751C0C8010E94BA20811185CF39
:104450008091EB0281608093EB02C8010E94090DFC
:1044600043C086E0F50111928A95E9F73DC0EE2040
:1044700009F485CFC8010E94BA20F82E882309F4D8
:104480007ECF86E0F801A6EEB2E001900D928A950B
:10449000E1F78091E6029091E7020E94AD200E9430
:1044A000122022C03D872E878D859E850E94AD20DB
:1044B000292F22952F70223028F49F7039F0811116
:1044C00005C00BC0243028F49F7049F4805E88300A
:1044D00020F0C8010E94090D9F2CF92C05C0F8019D
:1044E0009581907F99F7F9CF8F2D61960FB6F8944B
:1044F000DEBF0FBECDBFDF91CF911F910F91FF9017
:10450000EF90DF90CF90BF90AF909F900895292FAC
:10451000220F920F990F890F682F66956695669501
:10452000982F977083E0689FB001112440E050E01D
:1045300080E0FB01E40FF51FEE54FA4F208130E0DC
:10454000092E02C0369527950A94E2F72170332789
:10455000042E01C0220F0A94EAF7822B4F5F5F4FAF
:104560004330510531F70895292F220F920F990FEB
:10457000890FE82FE695E695E695877051E001C032
:10458000550F8A95EAF783E0E89FF0011124EE5475
:10459000FA4F20E030E070E04081CB01022E02C0F3
:1045A000969587950A94E2F78170819584278523F3
:1045B000842781932F5F3F4F2330310569F708959A
:1045C000982F9670963011F4886001C0877F809391
:1045D000A20310921F0310921E030C944E1721E0A9
:1045E00030E001C0220F8A95EAF720958091A2035E
:1045F00082230C94E02221E030E001C0220F8A9552
:10460000EAF78091A203822B0C94E022809321038D
:1046100010921F0310921E030C944E171092200349
:1046200086E0EFEDF2E0DF011D928A95E9F7109246
:104630001F0310921E030C944E17882341F080959F
:10464000909120038923809320030C944E170895A2
:10465000882339F090912003892B809320030C94B8
:104660004E170895882309F47AC0682F823869F4B8
:104670000E947C2B81FF73C069E38DED92E00E9464
:10468000622B0E944E1769E30EC0833891F40E949A
:104690007C2B80FF64C063E58DED92E00E94622B6D
:1046A0000E944E1763E58DED92E00E94552B0C940D
:1046B0004E17843869F40E947C2B82FF50C067E457
:1046C0008DED92E00E94622B0E944E1767E4EBCFC3
:1046D0008CEF860F813A38F380E2860F883070F4D1
:1046E000677081E090E001C0880F6A95EAF78095D5
:1046F00090912003892380932003D9CF8BE5860FE7
:104700008330A0F48091AE059091AF05892B39F1EB
:104710001092AF051092AE05E091D305F091D4054B
:104720003097E9F00680F781E02D16C0685A6731AE
:10473000B0F48091B0059091B105892B81F0109271
:10474000B1051092B005E091D305F091D4053097F2
:1047500031F00084F185E02D80E090E00994089527
:10476000CF93882309F47CC0C82F8238B1F40E940B
:104770007C2B81FD75C069E38DED92E00E94622B78
:104780000E944E172FEF81EE94E021508040904020
:10479000E1F700C0000069E317C08338D1F40E943C
:1047A0007C2B80FD5DC063E58DED92E00E94622B65
:1047B0000E944E172FEF81EE94E0215080409040F0
:1047C000E1F700C0000063E58DED92E00E94552BFB
:1047D0003CC08438B1F40E947C2B82FD41C067E468
:1047E0008DED92E00E94622B0E944E172FEF81EE1A
:1047F00094E0215080409040E1F700C0000067E461
:10480000E3CF8CEF8C0F813A80F4EFEDF2E085EE90
:1048100092E02191C217E1F08E179F07D1F76C2F1C
:104820008DED92E00E94622B10C080E28C0F8830E8
:10483000B8F4C77081E090E001C0880FCA95EAF72C
:1048400090912003892B80932003CF910C944E17D5
:104850006C2F8DED92E00E94552B0E944E17DFCFFA
:10486000CF9108951F93CF93DF93182F893319F0B9
:10487000C0E0D0E002C0C0E5D0E0812F0E94B023AC
:10488000209741F08FE99FE00197F1F700C0000009
:104890002197F6CF812FDF91CF911F910C94322376
:1048A000FF920F931F93CF93DF93182F062FF42EB1
:1048B000C0E0D0E02F2D402F612FCE010E946A2F43
:1048C0002196CC33D105B1F7DF91CF911F910F9194
:1048D000FF900895BF92CF92DF92EF92FF920F93D5
:1048E0001F93CF93DF93C82F80914E018C130DC07F
:1048F00020917303237030E040914D0150E081E03E
:104900002417350719F480E001C081E0817080939D
:104910004C018091780390914B01981739F0809366
:104920004B0140E060E080E00E945024C43131F54A
:104930008BED9DE205C0C63108F028C189EA9DE2F1
:104940000E94751B07C0C83009F028C18CE49FE2A3
:104950000E94521C90914A019F5F90934A018111DD
:104960002CC382E08093490180914C01811125C3C1
:10497000C11123C383E0809349011FC3C53108F0EF
:10498000A1C1C93019F48DE29FE2E2CFCA3008F02C
:104990005EC1C43009F03FC0D0914A018CE0D89F7D
:1049A000D02D11241CE01D0F1D3308F01CE3D09006
:1049B0007503C09076032091770300E4029F012DD8
:1049C0001124D11708F044C0ED2EF12CF701E05E60
:1049D000FD4F908180914B018923D9F0F701EE0FB3
:1049E000FF1FE855FE4F6081069FB001112445E08E
:1049F000759567954A95E1F780917403680F7D2D51
:104A00008C2D0E945930462F282F672FC7010E94F6
:104A10006A2FDF5FD6CFC53008F0C6C0C130E9F4D9
:104A200080914A01DCE08D9FD02D11241CE01D0FE8
:104A30001D3308F01CE3609174037091750380913D
:104A400076030E945930062FF72EE82ED11790F0EA
:104A500081E01C3308F47ECF0BC0C130E8F48091B4
:104A60004C01882329F040E060E080E00E9450245F
:104A700080E070CFED2FF0E0DF01A05EBD4F8C91A4
:104A800090914B01982331F02E2D402F6F2DCF01A7
:104A90000E946A2FDF5FDACF80914A01C230D1F5E0
:104AA000DCE08D9FD02D11241CE01D0F1D3308F07C
:104AB0001CE3F090750300917603E0907403B70156
:104AC000802F0E945930D62EC72EB82E60917703C2
:104AD0006E0D7F2D802F0E945930062FF72EE82E65
:104AE000D11708F0B5CF8D2F90E0FC01E05EFD4FAF
:104AF000308120914B01232359F030FF04C02E2D2B
:104B0000402F6F2D03C02B2D4D2D6C2D0E946A2F31
:104B1000DF5FE6CFC33009F041C0DCE08D9FD02DD0
:104B200011241CE01D0F1D3308F01CE3D090750309
:104B3000C09076032091770300E4029F012D112499
:104B4000D11708F085CFED2EF12CF701E05EFD4F77
:104B5000908180914B018923B9F0F701EE0FFF1F7F
:104B6000E459FE4F85AD82958F7060917403809FEC
:104B7000600D11247D2D8C2D0E945930462F282F39
:104B8000672FC7010E946A2FDF5FDACF80914C0147
:104B9000C73109F40AC1C83109F445C180914A01FD
:104BA0008F5F80934A01DDCEC63019F483E79EE221
:104BB00007C0C63040F0C73009F0C5CE87E49EE29A
:104BC0000E94271BC7CED0914A018CE0D89FD02DE0
:104BD00011241CE01D0F1D3308F01CE3F09074033A
:104BE00000917503E0907603609177036695669572
:104BF000669580916F03909170030E944F300E94E0
:104C0000B02F805887FD8195880F282F3E2D239F38
:104C1000212D1124822F6F2D702F0E945930062FC5
:104C2000F72EE82ED11708F013CFED2FF0E0DF01BB
:104C3000A05EBD4F8C9190914B01982331F02E2DA9
:104C4000402F6F2DCF010E946A2FDF5FEBCFCE3058
:104C500019F483E39EE2B4CFCF30B8F4CB3019F42B
:104C600086EF9EE204C0CB3028F482E19FE20E94EE
:104C7000D61B70CECC3019F485E49EE2A1CFCD30A6
:104C800009F08CCF8CE39EE29BCFC13119F486E210
:104C900090E35ECEC23158F4CF3019F488E19EE241
:104CA0008FCFC03109F07ACF89E09EE2E0CFC231E8
:104CB00019F485EE9EE24CCEC33109F06FCF81ED41
:104CC0009EE2D5CFCE31F1F48091790321E0382FE7
:104CD000321B08F430E0832F64E37DE210C0C4325D
:104CE00008F010C1C03209F0F4C08091790321E0CE
:104CF000382F321B08F430E0832F6CEF7CE20E94E7
:104D0000EA1928CECF3108F0DEC0C93109F044C01D
:104D1000D0914A018CE0D89FD02D11241CE01D0FAA
:104D20001D3308F01CE3F090750300917603E090CA
:104D300074036091770366956695669580916F031D
:104D4000909170030E944F300E94B02F805887FDD1
:104D50008195880F682F2CE0629F612D11246E0DC4
:104D60007F2D802F0E945930062FF72EE82ED11765
:104D700008F06ECEED2FF0E0DF01A05EBD4F8C910C
:104D800090914B01982331F02E2D402F6F2DCF01A4
:104D90000E946A2FDF5FEBCFCA3108F07DC0C631B9
:104DA00009F0C9CD8BE69DE2CBCD81111EC060918B
:104DB000770320E1620F08F46FEF80916F03909109
:104DC00070030E944F306AE070E00E947F35892BAB
:104DD00009F04ECE0E94DF356CE370E00E94B936D8
:104DE00060914B010E94FB3143CE80914A010CE05F
:104DF000809F002D1124DCE0D00FDD3308F0DCE3D0
:104E000010E0ED2EF12C0E151F0544F460914B01BE
:104E1000C8010E94FB310F5F1F4FF5CF81E0DC33EB
:104E200008F498CD25CE81111EC06091770320E152
:104E3000620F08F46FEF80916F03909170030E94EE
:104E40004F3065E070E00E947F35892B09F010CE6D
:104E50000E94DF356CE370E00E94B93660914B012F
:104E60000E94D43105CE80914A010CE0809F002D34
:104E70001124DCE0D00FDD3308F0DCE310E0ED2E90
:104E8000F12C0E151F0554F660914B01C8010E94CC
:104E9000D4310F5F1F4FF5CFCB3119F48AE59DE276
:104EA0008FCECB3118F481ED9FE28ACECC3119F44C
:104EB00083E59DE205C0CD3109F070CE8DE49DE221
:104EC0000E94B21A47CDC33209F009CF6AEC7CE2E6
:104ED00004C0C03220F464E37DE280E010CFC13230
:104EE00019F46CEF7CE2F9CFC23209F057CE809111
:104EF000790321E0382F321B08F430E0832F6AEC6D
:104F00007CE2FDCEC63259F48091790321E0382F3E
:104F1000321B08F430E0832F6CE97CE2F0CEC7321C
:104F200098F4C43259F48091790321E0382F321B70
:104F300008F430E0832F62EB7CE2E1CEC53209F069
:104F40002DCE62EB7CE2C9CFC73219F46CE97CE26A
:104F5000C4CFCF3F09F022CE80916F0390917003B0
:104F6000A0917103B091720388279C70AA27BB2778
:104F70002AE0B695A795979587952A95D1F782301F
:104F80009105A105B10571F083309105A105B10529
:104F900069F040E00197A105B10511F060E008C09B
:104FA00064E102C044E160E080E003C044E164E108
:104FB00084E10E94502482E0DECCDF91CF911F91EA
:104FC0000F91FF90EF90DF90CF90BF9008950895DC
:104FD00008950895809159030895CF93DF9321E0B8
:104FE0002093E9002FEF3091E800215035FD06C0F5
:104FF00035ED3A95F1F700002111F5CF2091E80049
:1050000025FF14C0EC0140E050E068E070E00E9431
:10501000051D8091E8008E778093E80088E0FE010E
:10502000AAE5B3E001900D928A95E1F7DF91CF9167
:1050300008951F920F920FB60F9211242F933F9352
:105040004F935F936F937F938F939F93AF93BF9390
:10505000CF93DF93EF93FF93C091E900CF708091DE
:10506000EC00D82FD17080FDD0E81092E90080913B
:10507000F000877F8093F00078940E94421D109288
:10508000E9008091F00088608093F000CD2BCF7014
:10509000C093E900FF91EF91DF91CF91BF91AF9164
:1050A0009F918F917F916F915F914F913F912F9140
:1050B0000F900FBE0F901F901895E8EDF0E08081E3
:1050C0008E7F80831092E2001092DA001092E1004D
:1050D000A0EEB0E08C9181608C9380818F7780838B
:1050E00019BCA7EDB0E08C918E7F8C9380818F7E70
:1050F00080831092DE0508952091E4003091E50050
:1051000095E64091EC00842F817040FF23C0809190
:10511000E80080FD1DC080916403882399F08530EC
:1051200099F08091EB0085FD11C04091E400509111
:10513000E5002417350729F3915011F09A01E1CFCA
:1051400084E0089582E0089583E0089581E0089561
:1051500080E008954091E80042FFDDCF08958091FE
:10516000660387FF11C08091E80082FD05C0809131
:1051700064038111F8CF11C08091E8008B770BC0D8
:1051800080916403882349F08091E80080FFF8CF84
:105190008091E8008E778093E8000895982F9730EB
:1051A00068F59093E900981739F07091EC00209120
:1051B000ED005091F00003C0242F762F50E021FD28
:1051C00002C09F5FECCF3091EB003E7F3093EB004D
:1051D0003091ED003D7F3093ED003091EB00316078
:1051E0003093EB007093EC002093ED005093F000AF
:1051F0002091EE0027FDE5CF80E008958F70809329
:10520000E90081E00895CF92DF92EF92FF920F9331
:105210001F93CF93DF93C8EDD0E088818F7E888382
:10522000E7EDF0E080818160808384E082BF81E0EF
:105230008093DE0588818E7F888302EE10E0F8017E
:1052400010821092DA0081EEC82ED12CF601108265
:1052500088818F77888388818068888388818F7D23
:10526000888319BC10926403109265031092630343
:105270001092620390EEE92EF12CF70180818B7F72
:10528000808388818160888342E060E080E00E94C2
:10529000CE28F60180818E7F8083F8018081816035
:1052A0008083808188608083F70180818E7F808306
:1052B000888180618883DF91CF911F910F91FF904A
:1052C000EF90DF90CF9008951F920F920FB60F923C
:1052D00011242F933F934F935F936F937F938F93FB
:1052E0009F93AF93BF93EF93FF938091E10082FF71
:1052F00009C08091E20082FF05C08091E1008B7FB0
:105300008093E1008091DA0080FF2AC08091D8006C
:1053100080FF26C08091DA008E7F8093DA00809132
:10532000D90080FF18C080E189BD82E189BD09B440
:1053300000FEFDCF81E0809364038091DE05811142
:105340000FC00E945D280E9403298091E2008460C2
:105350008093E20005C019BC109264031092DE0530
:105360008091E10080FF17C08091E20080FF13C0B0
:105370008091E2008E7F8093E2008091E200806164
:105380008093E2008091D80080628093D80019BC9D
:1053900085E0809364038091E10084FF2EC08091BA
:1053A000E20084FF2AC080E189BD82E189BD09B4A1
:1053B00000FEFDCF8091D8008F7D8093D800809132
:1053C000E1008F7E8093E1008091E2008F7E8093E8
:1053D000E2008091E20081608093E20080916503A9
:1053E000882311F084E007C08091E30087FD02C0AC
:1053F00081E001C083E0809364038091E10083FF3A
:1054000027C08091E20083FF23C08091E100877F65
:105410008093E10082E080936403109265038091A1
:10542000E1008E7F8093E1008091E2008E7F809387
:10543000E2008091E20080618093E20042E060E05F
:1054400080E00E94CE288091F00088608093F00078
:10545000FF91EF91BF91AF919F918F917F916F914C
:105460005F914F913F912F910F900FBE0F901F9022
:10547000189520916C0330916D032617370748F07B
:105480006115710539F42091E8002E772093E8002A
:1054900001C0B901FC0120E06115710579F180912D
:1054A00064038823F1F18530F1F18091E80083FDF8
:1054B0003CC08091E80082FD2EC08091E80080FF12
:1054C000EBCF2091F3008091F20090E0922B6115D8
:1054D000710551F08830910538F421912093F10045
:1054E000615071090196F3CF21E0089709F020E09F
:1054F0008091E8008E778093E800CECF2111CFCF46
:105500000AC080916403882361F0853061F0809146
:10551000E80083FD0AC08091E80082FFF2CF80E0BE
:10552000089582E0089583E0089581E0089587E773
:1055300097E790930108809300089AE088E10FB6FE
:10554000F894A895809360000FBE90936000FFCF01
:1055500078941F920F920FB60F9211248F939F93FE
:10556000AF93BF938091DA059091DB05A091DC05A4
:10557000B091DD050196A11DB11D8093DA059093D0
:10558000DB05A093DC05B093DD05BF91AF919F9142
:105590008F910F900FBE0F901F901895CF92DF92B2
:1055A000EF92FF922FB7F894C090DA05D090DB0508
:1055B000E090DC05F090DD052FBFA7019601261BCA
:1055C000370B480B590BCA01B901FF90EF90DF90E0
:1055D000CF9008959C014FB7F8948091DA0590918F
:1055E000DB05A091DC05B091DD054FBF821B930B5D
:1055F00008952FB7F8946091DA057091DB058091DA
:10560000DC059091DD052FBF08952FB7F8948091A8
:10561000DA059091DB05A091DC05B091DD052FBF87
:1056200008951F920F920FB60F9211248F939F939C
:10563000AF93BF938091D905811113C08091DA0592
:105640009091DB05A091DC05B091DD054196A11D8F
:10565000B11D8093DA059093DB05A093DC05B09330
:10566000DD05BF91AF919F918F910F900FBE0F906D
:105670001F9018950F931F930E942215882321F0E5
:105680001F910F910C94F92A0E94F92A0091D505D7
:105690001091D6052091D7053091D805600F711F64
:1056A000821F931F1F910F9108959C012A5F3F4F06
:1056B000FC014281461301C01282019682179307B2
:1056C000B9F708959C01FC0132969FEF80E041916B
:1056D000461789F09F3F19F4411101C0982F8F5F41
:1056E0008630A9F79F3F39F0F901E90FF11D97FDC9
:1056F000FA956283089508950E942215882351F037
:10570000E091D305F091D405309721F00190F0811C
:10571000E02D099480E008950F931F93CF93DF93BA
:10572000C42FD22FFC0182818823C9F04093D20577
:105730000E94052B9093D1058093D00580E28C0FB9
:10574000883008F057C0C77081E001C0880FCA9543
:10575000EAF7DF91CF911F910F910C94282380914C
:10576000D205481330C08091D0059091D1050E9498
:10577000EA2A883C910538F510E21D0FCD17B9F0E3
:1057800080E28C0F883040F4C77081E001C0880F40
:10579000CA95EAF70E941D23183028F581E09D2F55
:1057A000977001C0880F9A95EAF70E942823802FEE
:1057B0000E9432241830F0F4D77081E001C0880FC5
:1057C000DA95EAF70AC080E28C0F883098F4C77047
:1057D00081E001C0880FCA95EAF7DF91CF911F9150
:1057E0000F910C941D23802FDF91CF911F910F916A
:1057F0000C943224DF91CF911F910F9108958091E5
:10580000CF058823F9F00E94F92ADC01CB01805AE8
:105810009541AF4FBF4F8093CA059093CB05A0939E
:10582000CC05B093CD058091CE0581110BC062E00F
:1058300070E086E99AE00E94DC1C892B19F481E073
:105840008093CE058091CE050895CF93DF93C7E076
:10585000D2E060E0CE010E9426362196C11584E098
:10586000D807B9F7DF91CF910895CF92DF92EF92E9
:10587000FF920F931F93CF93DF93C0E0D0E08E0190
:1058800008581F4F6E018CE0C80ED11CFE01EA546F
:10589000F74FE590F4906F2DCE0187960E94263643
:1058A0006E2DCE0188960E9426362296CC15DD05F7
:1058B00069F70C171D0731F7E801003E1140F9F6B2
:1058C000DF91CF911F910F91FF90EF90DF90CF90DC
:1058D00008950F931F93CF93DF93C42FD0E0CC0F85
:1058E000DD1F2CE0629FC00DD11D112438E7839F7E
:1058F000C00DD11D1124CE0187960E940836082FB5
:1059000010E0102F0027CE0188960E9408369801DB
:10591000282BC901DF91CF911F910F910895462F38
:10592000843038F47A3028F4663018F4672F0C94F9
:10593000692C80E090E00895EF92FF920F93970119
:10594000201B31092F3F310519F010F02FEF30E007
:105950002095382F320F08F43FEF832F0F91FF90DF
:10596000EF900895EF92FF920F939701201B31095A
:105970002F3F310519F010F02FEF30E0322F309526
:10598000482F430F08F44FEF842F620F0F91FF90C1
:10599000EF900895EF92FF920F93972F093438F408
:1059A000B701601B71096F3F710519F010F06FEFBF
:1059B00070E0485F5F4F4131510540F0A901485FF9
:1059C0005F4F4131510510F06FEF70E06095482F47
:1059D000460F08F44FEF842F37FF02C02D5F3F4F73
:1059E000359527953595279560917403620F792F2A
:1059F0000F91FF90EF900895EF92FF920F93E00EBA
:105A0000F11CF90137FF03C0F195E195F10924E09C
:105A1000EE0FFF1F2A95E1F7EF3FF10519F014F0A3
:105A2000EFEFF0E09A0157FF03C03195219531095E
:105A300094E0220F331F9A95E1F72E173F070CF4DD
:105A4000F901EE0DFF1DEF3FF10519F010F0EFEF3A
:105A5000F0E02E2F2095382F320F08F43FEF832FE0
:105A60000F91FF90EF900895EF92FF920F9397019F
:105A700095E0099F200D311D11242F3F310519F0AC
:105A800010F02FEF30E02095382F320F08F43FEF61
:105A9000832F0F91FF90EF90089522E8241B08F4C4
:105AA00020E0620F08954095282F429F412D112438
:105AB000842F0895E42FF0E0EE0FFF1FE855FE4F0E
:105AC0009081921B97FD9195292F38E1239F212DDD
:105AD0001124620F08950F931F9310E0F801EE0F49
