:100000000C9483060C94CA060C94CA060C945F2DBB
:100010000C94CA060C94CA060C94CA060C94CA0620
:100020000C94CA060C94CA060C943B1F0C94771EC1
:100030000C9453260C94CA060C94CA060C94CA0657
:100040000C94CA060C94CA060C94CA060C94CA06F0
:100050000C94CA060C9406260C94CA060C94CA0684
:100060000C94CA060C94CA060C94CA060C94CA06D0
:100070000C94CA060C94CA060C94CA060C94CA06C0
:100080000C94CA060C94CA060C94CA060C94CA06B0
:100090000C94CA060C94CA060C94CA060C94CA06A0
:1000A0000C94CA060C94CA060C94CA06BA0BBD0B73
:1000B000D70BE40BEB0B0B0C0E0C420C5F0CFC0C87
:1000C000FC0C6A0C6C0C700C940CB50CB80CBB0CD2
:1000D000DD0C4D124D128812881297139713971347
:1000E0009713B9122D133F133F138B1CB21C591ECB
:1000F000B21C591EFE1C211D591E161E261E2C2127
:100100002C213F213F2135213F213F213F212C211F
:100110002C213A213F213F213A2100DA0281FFD9E7
:10012000F1DB20A4A62EAF00A0C000A1C800AED570
:1001300080A81FD300408D1420007F3F1F783C1EF5
:100140001E140A05202020200053435220002020A6
:10015000202000434150200020202020004E554DFB
:1001600020000A00556E646566696E65640041642E
:100170006A7573740A0052616973650A004C6F777F
:1001800065720A0044656661756C740A004C617999
:1001900065723A200020000A00959600B5B60097D7
:1001A0009800B7B800999A00B9BA009B9C00BBBCF4
:1001B000009D9E00BDBE00808182838485868788E5
:1001C000898A8B8C8D8E8F9091929394A0A1A2A3FB
:1001D000A4A5A6A7A8A9AAABACADAEAFB0B1B2B367
:1001E000B4C0C1C2C3C4C5C6C7C8C9CACBCCCDCEB2
:1001F000CFD0D1D2D3D4000A0000AE00000000005E
:1002000000000000000000000000000000000000EE
:100210000000000000000000000000000000007E60
:100220000F00D4FFFFFFC7000000780000000000AF
:100230000000002A2B280000000000000000000041
:1002400000000000000029000000002C1E342021C6
:100250002224342627252E362D3738271E1F20210D
:1002600022232425263333362E37381F040506076C
:1002700008090A0B0C0D0E0F101112131415161786
:1002800018191A1B1C1D2F3130232D3504050607A4
:1002900008090A0B0C0D0E0F101112131415161766
:1002A00018191A1B1C1D2F3130354C303000050138
:1002B0000906A1018505050719E029E715002501B3
:1002C0009508750181020507190029EF1500250120
:1002D00095F075018102050819012905950575013B
:1002E0009102950175039101C00660FF0961A101AA
:1002F0000962150026FF0095207508810209631523
:100300000026FF00952075089102C005010906A18D
:1003100001050719E029E7150025019508750181F8
:10032000029501750881010507190029FF150026AE
:10033000FF00950675088100050819012905950536
:1003400075019102950175039101C009025B0003DB
:100350000100A0FA090400000103010100092111B4
:100360000100012240000705810308000A09040179
:1003700000020300000009211101000122220007F0
:100380000582032000010705030320000109040280
:10039000000103000000092111010001223B0007B8
:1003A00005840320000A1201000200000008EDFE8F
:1003B0007B780100010200011803530077006100FF
:1003C0006C006C006F0077007400610069006C00C5
:1003D00000000C03740061006B006A006E000000F6
:1003E000040309040000000000003E5B4F5B3E0078
:1003F0003E6B4F6B3E001C3E7C3E1C00183C7E3C1E
:1004000018001C577D571C001C5E7F5E1C000018E6
:100410003C180000FFE7C3E7FF00001824180000A5
:10042000FFE7DBE7FF0030483A060E00262979296E
:100430002600407F05050700407F05253F005A3C08
:10044000E73C5A007F3E1C1C0800081C1C3E7F0035
:1004500014227F2214005F5F005F5F0006097F01A6
:100460007F00006689956A0060606060600094A209
:10047000FFA2940008047E04080010207E201000D3
:1004800008082A1C0800081C2A0808001E10101062
:1004900010000C1E0C1E0C0030383E383000060ECA
:1004A0003E0E060000000000000000005F0000009B
:1004B000000700070000147F147F14002E2A7F2AF3
:1004C0003A00231308646200774951275000000066
:1004D00005030000003E414100000041413E000094
:1004E0002A1C7F1C2A0008083E0808000000A060A3
:1004F00000000808080808000000606000002010E4
:10050000080402007F4149417F0000007F00000095
:10051000794949494F004149494977001F11117FE5
:1005200010004F49494979007F4949497900010143
:1005300001017F007749494977004F4949497F00C8
:1005400000001400000000403400000000081422E5
:100550004100141414141400004122140800030173
:1005600059090F007F415D594F007F1111017F0034
:100570007F41494977007F41414163007F0141410B
:100580007F007F41494949007F01090909007F41F6
:1005900049497B007F0808007F0000417F4100003F
:1005A0000041413F00007F00080877007F40404045
:1005B00040007F017E017F007F013E407F007F4140
:1005C00041417F007F0109090F007F41E1417F0028
:1005D0007F0109196F006F4949497B0001017F01C3
:1005E00001007F4040007F003F2040203F007F40CF
:1005F0003F407F007714081477000F0870080F0041
:10060000615149454300007F414141000204081007
:100610002000004141417F000402010204004040EB
:10062000404040000000030500007C4444047C007E
:100630007F0444447C007C44444444007C4444049F
:100640007F007C4454545C0000087F090000BCA477
:10065000A484FC007F000808780000007D000000F2
:1006600000407D0000007F10106C000000017F4002
:1006700000007C0478047C007C0404047C007C443E
:1006800044447C007C0424243C003C2424047C005E
:10069000007C000404005C545454740000047F4443
:1006A00000007C4040007C001C2040201C007C405E
:1006B0003C407C004428102844005C5050507C0092
:1006C0004464544C44000008774100000000770067
:1006D00000000041770800000201020402003C26ED
:1006E00023263C0000000000000000000000000085
:1006F00000000000000000000000000000000000FA
:1007000000000000000000000000000000000000E9
:1007100000000000000000000000000000000000D9
:1007200000000000000000000000000000000000C9
:1007300000000000000000000000000000000000B9
:1007400000000000000000000000000000000000A9
:100750000000000000000000000000000000000099
:100760000000E0F0F0F0E0ECEEF7F37020007C7CAD
:100770007C7E007E7E7E7F7F7F000080C0E07E5B8F
:100780004F5BFEC00000C000DCD7DEDEDED7DC0041
:10079000C0000000000020205070E0800000000039
:1007A000000000005F515555555555457D007C4072
:1007B0005C505C405C505C407C007C44545454541D
:1007C00054047C00057D017F00057D017F007C4491
:1007D0005454545454447C007C405C505C405C5005
:1007E0005C407C00147740575454545454007C446B
:1007F0005454545454047C007D057D00057D017FD4
:100800000000000000007F415555555555457D00BD
:100810007F415D5555555D417F000000000000009F
:1008200000000F1F3F7F7F7F7F7F3F1E0C001F1F39
:100830001F3F003F3F3F7F7F7F00307B7F7830202E
:100840002030787F3B0003000F7F0F0F0F7F0F00DA
:100850000300207C7E7F7F7F7E3F7F47010000007A
:100860000000000000000000000000000000000088
:100870000000000000000000000000000000000078
:100880000000000000000000000000000000000068
:100890000000000000000000000000000000000058
:1008A0000000000000000000000000000000000048
:1008B0000000000000000000000000000000000038
:1008C0000000000000000000000000000000000028
:1008D0000000000000000000000000000000000018
:1008E0000000000000000000000000000000000008
:1008F00000000000000000000000000000000000F8
:1009000000000000000000000000000000000000E7
:1009100000000000000000000000000000000000D7
:10092000000000002223252628292A2C2D2F3032D2
:10093000333536383A3B3D3E4042434547494A4CC1
:100940004E5051535557595A5C5E606264666869EF
:100950006B6D6F71737577797B7D7F8183858789F7
:100960008A8C8E90929496989A9C9E9FA1A3A5A7FC
:10097000A8AAACAEAFB1B3B4B6B8B9BBBCBEBFC128
:10098000C2C3C5C6C7C9CACBCCCDCED0D1D2D2D3B3
:10099000D4D5D6D7D7D8D9D9DADADBDBDBDCDCDCC7
:1009A000DCDCDDDDDDDDDCDCDCDCDCDBDBDBDADA8A
:1009B000D9D9D8D7D7D6D5D4D3D2D2D1D0CECDCC01
:1009C000CBCAC9C7C6C5C3C2C1BFBEBCBBB9B8B616
:1009D000B4B3B1AFAEACAAA8A7A5A3A19F9E9C9AA1
:1009E00098969492908E8C8A89878583817F7D7B6F
:1009F00079777573716F6D6B6968666462605E5C50
:100A00005A5957555351504E4C4A49474543424015
:100A10003E3D3B3A3836353332302F2D2C2A2928AB
:100A200026252322165C1E001F0020002100220024
:100A30002B0014001A00080015001700E000040045
:100A40001600070009000A0034621D001B000600A2
:100A500019000500645D4600E3002F642D412C0061
:100A60002A0027002600250024002300310013005F
:100A700012000C0018001C00280033000F000E00AC
:100A80000D000B00387252003700360010001100C4
:100A90004F005100500030742E42280035003A00BB
:100AA0003B003C003D003E00010001000100010050
:100AB000010001000100010001000100010001002E
:100AC000010001000100010001000100010001001E
:100AD00001000100010001004C0043004200410000
:100AE00040003F00010045004400010001000100FA
:100AF00001004D004E0052004B004A0001004B0027
:100B00004F005100500001004D004E004A0001000E
:100B10000100010035003A003B003C003D003E0072
:100B200001000100010001000100010001000100BD
:100B300001000100010001000100010001000100AD
:100B4000010001000100010001000100010001009D
:100B50004C0043004200410040003F0001004500BE
:100B6000440001000100010001004D004E00520050
:100B70004B004A0001004B004F00510050000100A3
:100B80004D004E004A00010001000100010001007B
:100B900001000100010001000100C25CC35C655D51
:100BA000010001000100C55CC75CC95C01000100D7
:100BB0000100C65CC85CCA5C0100010001000100C4
:100BC000010001000100010001000100010001001D
:100BD000010001000100010001000100010001000D
:100BE00001000100010001000100010001000100FD
:100BF00001000100010001000100010001000100ED
:100C00000100010000AF000101010101010101012A
:100C100002020202020202020203030303030303AD
:100C2000030404040404040405050505050606067A
:100C30000606070707070708080808090909090A37
:100C40000A0A0B0B0B0C0C0C0D0D0D0E0E0E0F0FDC
:100C50000F1010111111121213131414151516166A
:100C60001717181819191A1A1B1B1C1D1D1E1E1FD9
:100C70002020212222232424252626272829292A28
:100C80002B2C2D2D2E2F3031323233343536373850
:100C9000393A3B3C3D3E3F4041424344454647484C
:100CA000494A4C4D4E4F50515354555658595A5B22
:100CB0005D5E5F616264656668696B6C6D6F7072C2
:100CC000737577787A7B7D7E8082838587888A8C2E
:100CD0008E8F91939596989A9C9EA0A2A3A5A7A962
:100CE000ABADAFB1B3B5B7BABCBEC0C2C4C6C9CB59
:100CF000CDCFD1D4D6D8DBDDDFE2E4E7E9EBEEF00F
:100D0000F3F5F8FAFDFF11241FBECFEFDAE0DEBFE6
:100D1000CDBF04B603FE27C08091360590913705FC
:100D2000A0913805B09139058730904BA740B04B62
:100D3000D1F41092360510923705109238051092B2
:100D4000390514BE84B7877F84BF0FB6F894A89581
:100D500080916000886180936000109260000FBEF7
:100D6000E0E0F8E3099511E0A0E0B1E0E2EFF4E69D
:100D700002C005900D92A638B107D9F725E0A6E884
:100D8000B1E001C01D92A633B207E1F70E94CC0684
:100D90000C9477320C940000CF93DF93CDB7DEB77D
:100DA000AC970FB6F894DEBF0FBECDBF84B7877F78
:100DB00084BF0FB6F894A8958091600088618093F5
:100DC0006000109260000FBE90E080E80FB6F894CB
:100DD00080936100909361000FBE85B7806885BFE6
:100DE00085B7806885BF85EC94E1909387018093F7
:100DF00086010E94BB1E0E94DA1E8091E200846080
:100E00008093E2007894809185028823A1F010916C
:100E1000E9001F709091EC00892F817090FD80E8AF
:100E2000182B1092E9008091E80083FD0E94A51B19
:100E30001F701093E90082E084BD93E095BD9AEFA6
:100E400097BD80936E0010922B0510922C05109286
:100E50002D0510922E050E947A28811102C00E9451
:100E60006B2886988E988FB186FB882780F98093AF
:100E700000010E94B41681110E94192D8091000179
:100E800080910001882311F090E001C095E09093DB
:100E9000930185E0891B8093920101E511E026E52D
:100EA000E22E21E0F22ED8018D918D018F3F11F0BD
:100EB0000E94D716E016F106B1F70BE511E091E6B6
:100EC000E92E91E0F92EF80181918F018F3F11F009
:100ED0000E94D716E016F106B1F7E8E8F1E0AAECB7
:100EE000B1E011921D9221E0E239F207D1F70E94A0
:100EF0006418811102C00E946F1882E090E00E9485
:100F0000FB2E8093BF010E94531890933505809368
:100F100034050E9407198FE39CE90197F1F700C09F
:100F200000000E9407198091CA0180FF08C06FEF7E
:100F30007FEF80E090E00E942D2F0E94F52583E056
:100F400090E00E94FB2E0E9463230E94B416811140
:100F500002C00E941C2D0E94B416811102C082E0C2
:100F600001C080E08093BA0180E8809390020E94E3
:100F7000AD2B6DE070E08DE291E00E947C1B892B2F
:100F800009F043C08091BA0163E070E081FD3AC08E
:100F90008AE291E00E947C1B892BB9F56DE070E03C
:100FA0008AE191E00E947C1B892B79F50E943B2607
:100FB000DC01CB01805A9541AF4FBF4F8093200594
:100FC00090932105A0932205B0932305E3E9F2E075
:100FD00080E092E0DF019C011D9221503040E1F75A
:100FE000F0939A04E09399048FEF9FEF909392020D
:100FF0008093910281E080932505809324051092CF
:10100000BB0103C087E291E0C5CF809194018111BB
:1010100038C00E946418811104C00E946F180E9499
:10102000D32988E090E00E94032F6093C00470935E
:10103000C1048093C2049093C3048091BF04836071
:101040008093BF046E7F71F40E94D32988E090E002
:101050000E94032F6093C0047093C1048093C20464
:101060009093C3040E9485290E94AD288091C004FA
:1010700080FF04C060E086950E945A2B81E0809337
:10108000940181E091E090932A0580932905CE0197
:1010900001967C011E019DE0290E311C8091850284
:1010A000853009F067C0DD24D39400E112E180911E
:1010B0008502853009F049C080918502843009F4A9
:1010C00033C00E94AD2880919601811109C0D09251
:1010D00096018091C0048170809395010E94432BFA
:1010E00010922F05A8E1B0E0E0E40FB6F894A895BF
:1010F000A09360000FBEE093600083B7817F84609F
:1011000083BF83B7816083BF7894889583B78E7FD0
:1011100083BF0FB6F894A895809160008861809392
:101120006000109260000FBE80918402882309F451
:10113000BECF0E940719EAECF1E08191811184C4CD
:1011400021E0E43DF207C9F7B2CF0E946B230E9471
:10115000FD261092960180919501882349F0809197
:10116000C00481608093C00460E086950E945A2B81
:101170000E94B4280E940719B82E81110E943B26B4
:10118000E0ECF1E0AAECB1E000E010E0902EAD90D0
:1011900081918A2549F1C12CDD24D394982F9D217A
:1011A000F1F00E94B416882399F0C9A29AA2AD204A
:1011B00081E009F480E08BA30E9447268160782FAC
:1011C0009DA38CA349A15AA16BA18DA10E94A90D39
:1011D000F801E054FE4F8081D826D0821AC0C39413
:1011E000DD0C36E0C312DACF0F5F1F4F0A30110556
:1011F00069F68FEF8EA38FA318A60E944726816001
:10120000782F9AA789A74EA15FA168A58AA50E94F9
:10121000A90D8091BE04882309F484C08091BD0487
:10122000E091C004E695E81BE093B904823059F4DC
:10123000F0E0E05CFE4FE4910E2F10E08FE2C82E4C
:1012400085E2D82E20C0863059F4F0E0E35CFE4FF2
:10125000E4910E2F10E0BFE1CB2EB5E2DB2E13C0E0
:10126000893059F4F0E0E65CFE4FE4910E2F10E077
:10127000A5E0CA2EA9E2DA2E06C000ED17E0F9EDCE
:10128000CF2EF4E2DF2E8091BA04882361F0109211
:10129000BA040E9497269093B8048093B7041092E2
:1012A000BC041092BB040E949726E091B704F09111
:1012B000B8049C012E1B3F0B2F3F3F4798F5209110
:1012C00099012223B1F01092990120919701309158
:1012D0009801821B930B8F3F9F4758F4205D3A483B
:1012E00030939801209397018091BF048860809388
:1012F000BF048090BB049090BC040E0F1F1F10937E
:10130000B8040093B70487EB94E0F6010995809147
:10131000BB049091BC04892B29F4892819F081E041
:101320008093990180912505882309F4CDC180918E
:10133000BC019091BD010E942C26C29708F4B1C057
:101340000E9447269093BD018093BC0183E992E0FF
:1013500090939A04809399040E94B416882309F408
:101360005AC081EB91E00E944C1B87E991E00E94FA
:101370004C1B84EB91E00E944C1B85E991E00E949C
:101380004C1B8DE891E00E944C1B80918F020E94C3
:10139000510E813059F038F0823069F0833071F4A9
:1013A0008EE691E005C084E891E002C08DE791E00F
:1013B0000E944C1B0AC086E791E0FACF84E691E0D8
:1013C0000E944C1B81E00E94A62782E691E00E94C9
:1013D0004C1B0E94FD2681FB002700F982FB112790
:1013E00010F980FF03C08DE591E002C088E591E02F
:1013F0000E944C1B002319F083E591E002C08EE4AB
:1014000091E00E944C1B112319F089E491E047C040
:1014100084E491E044C087EB91E00E944C1B8091F2
:10142000C00480FF3AC00E947D299091C304969524
:10143000969596951F929F939091C2049695969536
:1014400096951F929F939091C10496959695969527
:101450001F929F931F928F938EE391E09F938F93A0
:101460001F928EE18F93FF92EF920E947F2FF701E0
:1014700001900020E9F78F01015011090FB6F8948F
:10148000DEBF0FBECDBF6701C016D10650F4D60136
:101490008D916D010E94CC1AF7CF87EF91E00E94E9
:1014A0004C1B80912505882309F4E3C0209191020B
:1014B000309192022115310509F4DBC08091BB0106
:1014C0008111D7C0482E512CCC24C394D12C082E86
:1014D00002C0CC0CDD1C0A94E2F7A9014C215D216D
:1014E000452B11F48F5FEECF9091BA01920175E018
:1014F000220F331F7A95E1F790FD12C08295880F75
:10150000807680930D01220F232F221F330B3195FC
:1015100020931001815E80930E011092110112C080
:1015200055E0369527955A95E1F7220F220F220FA5
:1015300020930D0110921001295F20930E0183E08A
:101540008093110124E630E047E050E06BE071E069
:1015500088E70E94642C892B09F08BC08091BA0126
:1015600080FD23C0C20145E0880F991F4A95E1F72D
:10157000AC014D565D4F04E610E020E230E060E43F
:1015800088E70E948B2C892B09F073C00E9480276A
:10159000C094D0948091910290919202C822D92255
:1015A000D0929202C092910264C080E2EAE9F1E036
:1015B000DF011D928A95E9F735E0440C551C3A95F8
:1015C000E1F7E5E6F1E0FCA7EBA761E671E0ABA58A
:1015D000BCA58D91BCA7ABA7FB019191BF01A20156
:1015E000490F511D4D565D4F90E086569E4FFC01B0
:1015F00027E0922E9F01281B390B7724739401C09A
:10160000770C2A95EAF78A01812CD801AD908D01DB
:10161000A720292D28192770622E022E000C330BCB
:10162000BA2D01C0BB0F6A94EAF76B2E3195219554
:1016300031092770332701C0A6942A95EAF76A2852
:10164000A0806A286082839428E08212DECF9A9478
:1016500031963FEF9312CECF8BA59CA58956914032
:1016600009F0B5CF04E610E020E230E04AE951E0AD
:1016700086CF80912405882339F10E943B26009172
:101680002005109121052091220530912305DC01D0
:10169000CB01801B910BA20BB30B8F3F9F4FAF4F22
:1016A000BF4790F480912505882371F0809124052F
:1016B000882351F062E070E089EF91E00E947C1B8A
:1016C000892B11F410922405B1100E9480270E94EA
:1016D000FD269091BE01891721F00E94FD2680937E
:1016E000BE0180918502843009F0D8CC83E08093DC
:1016F000E9008091E80082FFD1CC8091E80085FF6D
:1017000023C00E94102081111DC080E2C82ED12C60
:101710008E010F5F1F4F09C08091F100D8018D939A
:101720008D01B1E0CB1AD10869F08091E80085FD08
:10173000F3CF8091E8008B778093E8000E9410201F
:10174000882399F391E001C090E08091E8008B77C5
:101750008093E800992309F4A1CCE9818E2F90E0D1
:10176000FC013197E331F10508F046C1EA5AFF4F19
:101770000C944F2F1A8289E0A0C08A81823009F42C
:1017800079C1833051F0813009F036C10E943B2687
:101790009B838C837D836E8331C1FE013396AAECDB
:1017A000B1E08D9181932E163F06D9F727C18A812A
:1017B000823009F021C16B817C818D819E810E94E4
:1017C000552F86E290E024C04C816B818A810E9473
:1017D0001A289D8356C10D811E81102701271027CD
:1017E0008C81CB809A81ECE0CE9E60011124F8E7D9
:1017F0009F9FC00CD11C1124C80ED11CC80ED11C37
:10180000612FC60187960E940F2F602FC601889610
:101810000E940F2FF3C00E94E627F0C08A81813812
:10182000B1F050F4803809F0E9C020E04B816091BC
:10183000C2048091C10423C08238E9F0833809F0E2
:10184000DDC020E04091C3046C818B8118C060E052
:101850008B810E945A2B8B81811103C00E94432BE4
:10186000CDC08091C00481608093C00460E0869503
:101870000E945A2BC3C08B818093C404BFC00E94B6
:101880009E2ABCC08A81813899F030F4803809F0F2
:10189000B5C08091C30411C0823869F0833809F063
:1018A000ADC08091C1048B838091C2048C83A6C09B
:1018B0000E947D2902C08091C4048B839FC06091E7
:1018C000C0047091C1048091C2049091C3040E942D
:1018D0009F2994C080E14DC081E08A8389EFEDCFDC
:1018E0000A811B81102701271027AC80B12C6701CA
:1018F000C801895F9D4F96012E193F092A153B05A6
:1019000008F07CC0093F21E0120730F40E94FB2E52
:10191000D60114968C9302C0F60114820F5F1F4FFC
:10192000FFEFCF1ADF0AE4CF0A811B8110270127BE
:101930001027AC80B12C6701C801895F9D4F9601CB
:101940002E193F092A153B0508F058C0093F21E030
:10195000120728F4D60114966C910E940F2F0F5F86
:101960001F4FBFEFCB1ADB0AE7CF0E94D62746C036
:1019700084E08A8343C00A811B8110270127102736
:10198000AC80B12C6701C801879696012E193F09DA
:101990002A153B0598F5003EE1E01E0730F40E9451
:1019A000FB2ED60114968C9302C0F60114820F5FB1
:1019B0001F4FFFEFCF1ADF0AE6CF0A811B811027E6
:1019C00001271027AC80B12C6701C80187969601CA
:1019D0002E193F092A153B0588F4003E21E0120725
:1019E00028F4D60114966C910E940F2F0F5F1F4FA1
:1019F000BFEFCB1ADB0AE9CF8FEF89838091850295
:101A0000843009F04BCB1091E9001F709091EC00ED
:101A1000892F817090FD80E8182B82E08093E90087
:101A20008091E80080FF0CC040E050E060E270E090
:101A3000C7010E9443208091E8008E778093E800E0
:101A40001F701093E9002ACB09BD19BD09B400FE2F
:101A5000FDCF8091D8008F7D8093D8008091E000E9
:101A600082608093E0008091E00081FDFCCF0E94C5
:101A70006B231DCB86E290E00E94FB2E1B821C8212
:101A80001D828E83BBCFDF92EF92FF920F931F9345
:101A9000CF93DF93E82FF0E0E55DFD4FD490282F42
:101AA00026952695269530E0F901E55EFD4F0491D7
:101AB000877010E0082E02C0159507950A94E2F78A
:101AC00001701127F901E55FFD4FE490F12C082E1C
:101AD00002C0F594E7940A94E2F791E0E922FF242A
:101AE000F901E550FE4FC491D0E002C0D595C795ED
:101AF0008A95E2F7C170DD270115110519F081EE15
:101B00000E941724E114F10419F086EE0E941724B4
:101B10008D2D0E94B924EF2819F086EE0E9499239A
:101B2000012B19F081EE0E949923CD2B51F08CE20C
:101B3000DF91CF911F910F91FF90EF90DF900C9468
:101B4000B924DF91CF911F910F91FF90EF90DF901B
:101B500008951F93CF93DF93CDB7DEB767970FB686
:101B6000F894DEBF0FBECDBF4B8B5C8B6D8B7E8B35
:101B70008F8B611110922F0286E09E01235F3F4FF1
:101B8000D901E82F1D92EA95E9F795E0FE017396D9
:101B9000D90101900D929A95E1F79C894E895F8950
:101BA0007B897D879E876F87598B488BF901DE0182
:101BB000179601900D928A95E1F7CE0107960E9443
:101BC000432181113EC086E0FE013796DE01119669
:101BD00001900D928A95E1F7FF81E8856A857B8502
:101BE0006115710531F0EF3F31F481E0FF3F19F4E9
:101BF00003C081E001C080E080FD23C02091FC0192
:101C000030E0C90101968770992740912D0250E07C
:101C10008417950779F1F983EA837D836C8396E0D5
:101C2000929FD001939FB00D1124A350BE4FFE018F
:101C3000319601900D929A95E1F78093FC010E94F4
:101C4000FD1816E080912D029091FC018917F9F0A2
:101C5000189FC001112483509E4F0E944321882366
:101C6000B1F080912D0290E00196877099278093C2
:101C70002D02E8CF0E946B231092FC0110922D02DE
:101C8000E6EFF1E086E0DF011D928A95E9F76796BD
:101C90000FB6F894DEBF0FBECDBFDF91CF911F917D
:101CA0000895982F92959F7019F0892F24E001C014
:101CB00020E0982F9695969511F02E5F892F982FFA
:101CC000969509F02F5F822F08958F929F92AF9281
:101CD000BF92CF92DF92EF92FF920F931F93CF9319
:101CE000DF93CDB7DEB729970FB6F894DEBF0FBEEE
:101CF000CDBFFC018081918123813481232B31F080
:101D00009F3F31F491E08F3F19F403C091E001C08F
:101D100090E090FD27C67F0185E0DE0111960190DD
:101D20000D928A95E1F7F701228189819A81222318
:101D300049F00E94DB20182F682F89819A810E9428
:101D4000112303C00E94E422182F69817A81812F18
:101D50000E9440288C01F7018281882309F400C584
:101D6000980122513F452031310508F09AC08FEF8C
:101D700093E00E94FB2E8111F5C5025147E0E42E4D
:101D800042E0F42E002379F0E114F4E0FF0609F4B8
:101D9000E9C5C7010E94FB2E811101C001502FEF40
:101DA000E21AF20AEFCF1E821F8218861986DD24FE
:101DB000D3943AE0C32E87010F5F1F4FC7010E94E3
:101DC000FB2E8E831F82882309F4CCC59FEF980FCA
:101DD000933060F48F83DE8242E0E40EF11CC80190
:101DE0000E94FB2E8887811102C0BCC578018E013C
:101DF0000A5F1F4FF80180818823E9F2813009F0E2
:101E00004BC08181813049F45801F2E0AF0EB11C22
:101E1000F80182810E94B9240AC0823051F458012D
:101E2000F2E0AF0EB11CF80182810E9417248501F7
:101E300035C0833049F45801F2E0AF0EB11CF8010F
:101E400082810E949923F3CF843019F00F5F1F4FD6
:101E500025C0F80122810E5F1F4F80E090E030E046
:101E6000205331092A30310568F4C89EA001C99E6B
:101E7000500D1124C901840F951F0F5F1F4FF801EA
:101E80002081EDCF009751F0EFE9FFE03197F1F7B6
:101E900000C000000197F6CF0E94430D0F5F1F4F57
:101EA000A9CF0031FFE51F0711F481E005C0013122
:101EB0002FE51207B9F482E00E94582329960FB645
:101EC000F894DEBF0FBECDBFDF91CF911F910F9170
:101ED000FF90EF90DF90CF90BF90AF909F908F904A
:101EE0000C945A1B0436EDE51E0781F4882339F063
:101EF00081E00E94582382E00E9458231DC081E0A7
:101F00000E944C2382E00E944C2316C00536FDE55A
:101F10001F0709F450C102362DE5120709F0B4C1BC
:101F2000882351F09BEAA92E92E0B92E2AE0922E46
:101F3000F501849181114EC1F7019281992309F431
:101F400002C2109228050230FCE51F0708F4E5C123
:101F500006312CE5120738F098012A5F3C452930FC
:101F6000310508F0DAC10E9453189093350580932B
:101F7000340500314CE5140709F4C3C008F041C032
:101F800008308CE5180709F49AC0F0F40430ECE549
:101F90001E0709F487C068F402302CE5120709F423
:101FA00077C003301C4509F0E5C08091340582609C
:101FB00076C006305CE5150709F46EC008F07BC0FA
:101FC0008091340588606BC00C309CE5190709F4DA
:101FD00085C068F40A30FCE51F0709F474C008F0F6
:101FE00079C00E946B2380913405806858C00E3000
:101FF0004CE5140709F476C008F07FC080913405E1
:102000008BC00B3F8CE5180709F44FC018F503315E
:10201000ECE51E0709F47DC078F401312CE51207C8
:1020200009F473C002311C4509F0A4C00E946B235F
:10203000809134058F7733C005315CE5150709F4CD
:1020400072C008F486C00A3F1C4509F093C0809115
:1020500035053EC00F3FECE51E0709F45FC058F49C
:102060000D3F2CE5120709F444C008F43FC08091ED
:10207000350582602DC001305DE5150709F475C096
:1020800008F45DC002301D4509F074C060E06EC008
:1020900080913405816003C0809134058061809314
:1020A000340568C08091340511C080913505826087
:1020B000809335055FC0809134058062F0CF8091B8
:1020C00034058064ECCF8091340588608460E7CF6C
:1020D0008160EECF809134058E7FE1CF8091340511
:1020E0008D7FDDCF80913405877FD9CF80913505F5
:1020F00018C0809135058D7FDBCF809134058F7EB0
:10210000CECF809134058F7DCACF809134058F7BEF
:10211000C6CF80913405877F8B7FC1CF80913505F5
:102120008D7F8E7FC5CF8091340582FB222720F9D9
:1021300091E0922790FB82F990FB83F9B0CF8091D8
:102140003505982F909591708E7F892B90FB81F9A2
:10215000AFCF0E946B238091340587FB222720F9A3
:1021600091E0922790FB87F99ACF61E08EE090E0B2
:102170000E940F2F609134051091350584E090E0A6
:102180000E940F2F612F82E290E00E940F2F29966C
:102190000FB6F894DEBF0FBECDBFDF91CF911F9178
:1021A0000F91FF90EF90DF90CF90BF90AF909F90F6
:1021B0008F900C946B23882309F4BECE0E94D32900
:1021C0008091C00481608093C00461E086950E9484
:1021D0005A2BB2CE813009F04FC06501FFEFCF1A04
:1021E000DF0AF6018491813049F46501F2E0CF0EF7
:1021F000D11CF60184910E94B92441C0823049F477
:102200006501F2E0CF0ED11CF60184910E941724E3
:1022100036C0833049F46501F2E0CF0ED11CF601DF
:1022200084910E9499232BC0843049F56501F2E026
:10223000CF0ED11CF601249180E090E030E02053D5
:1022400031092A30310570F4989EA001999E500DF5
:102250001124C901840F951FFFEFCF1ADF0AF60181
:102260002491ECCF009759F0EFE9FFE03197F1F7B7
:1022700000C000000197F6CF0E94430D6501560192
:10228000FFEFAF1ABF0A54CE033F2CE5120769F1E6
:1022900098F4083D5CE51507F9F0093D8CE5180751
:1022A000B1F1073D9CE5190709F046CE06E221EEA3
:1022B00041EE67ED7CE515C0053FECE51E0709F131
:1022C000D0F0063F2CE5120709F036CE07E225EEE6
:1022D00046EE66EF7CE505C007E225EE45EE68EDCB
:1022E0007CE5C7010E940D273DC306E221EE40EECA
:1022F00063EF7CE5F6CF07E225EE44EE64EF7CE584
:10230000F0CF06E221EE42EE65EF7CE5EACF08E28F
:1023100021E045EE69ED7CE5E4CF06314CE514079C
:10232000A9F5809130028A7A91E009F490E09093C7
:10233000D401882311F065E301C069E285ED91E0E5
:102340000E94C8260FC006318CE5180709F059C055
:102350008091D401882309F412C265E385ED91E0F0
:102360000E94A02629960FB6F894DEBF0FBECDBFFF
:10237000DF91CF911F910F91FF90EF90DF90CF9061
:10238000BF90AF909F908F900C94D91801155CE589
:102390001507C1F00E3D1C4509F04FC029960FB638
:1023A000F894DEBF0FBECDBFDF91CF911F910F918B
:1023B000FF90EF90DF90CF90BF90AF909F908F9065
:1023C0000C946F180E946B239FEFE4E3FCE09150A4
:1023D000E040F040E1F700C0000029960FB6F89405
:1023E000DEBF0FBECDBFDF91CF911F910F91FF9048
:1023F000EF90DF90CF90BF90AF909F908F900C9414
:10240000F5258091300282720B3CECE51E0709F441
:1024100073C208F0D9C1063C2CE5120709F458C272
:1024200008F0BDC1033C5CE5150709F434C208F0AF
:10243000A8C1023C1C4509F4F3C1F70100811181D8
:10244000992349F0C8010E94DB20D82E682FC801CB
:102450000E94112304C0C8010E94E422D82EB801B2
:102460008D2D0E9440280E94EE16082FC82EF701DD
:1024700022814581342F32953F70D92ED2948FE03E
:10248000D8228D2C912CFCE08F16910408F04FC1BE
:10249000F401E759FF4F0C944F2F892F807F9F70D5
:1024A000192F882311F01295107F2223B9F01123E0
:1024B00009F429C180E2800F883010F0C11006C0F5
:1024C00090913002192B1093300205C090912F0289
:1024D000192B10932F020E94D91815C1802F0E942A
:1024E0009923112309F423C1005E1095083010F0E0
:1024F000C11006C09091300219231093300205C01C
:1025000090912F02192310932F020E94D9180FC106
:10251000592F507F892F8F70503211F08295807F14
:1025200051E0C5120AC0222321F0363008F0FFC066
:102530000DC0353008F0FBC019C0222351F0332301
:1025400029F040FFE0C04F70F70145830E948F23C0
:10255000EEC0332359F0093309F0E6C0FFEF27EE50
:1025600043E0F15020404040E1F7DCC00E9484236A
:10257000DEC0892F8370A9F52111DEC0802F8295DE
:1025800086958770880F880F202F2F70082E01C026
:10259000220F0A94EAF704FF09C04FE050E001C09F
:1025A000440F8A95EAF7842F809501C080E09695C4
:1025B0009695492F4370423069F088F4909131022A
:1025C000413019F0822B892302C0922B892B0E9463
:1025D0006323B2C0822B909131028927F8CF822BDE
:1025E000F6CF222319F0892F817001C086958823A8
:1025F00009F4A2C0802F829586958770880F880F76
:10260000202F2F70082E01C0220F0A94EAF704FF32
:1026100009C04FE050E001C0440F8A95EAF7842FCB
:10262000809501C080E096959695492F4370423081
:1026300059F078F490918F02413019F0822B892360
:1026400009C0922B892B06C0822B90918F0289277B
:1026500001C0822B0E943D236FC0192F1F702223BF
:1026600039F0812F0E945823802F0E948F2364C04D
:10267000802F0E948423812F0E944C235DC0802FD5
:1026800051EF051709F1501720F0E0EF0E1741F058
:1026900036C0F2EF0F17F9F043EF041719F12FC00E
:1026A000222379F0353008F042C0292F2F7181E0C4
:1026B00090E001C0880F2A95EAF790918F02892750
:1026C0001BC03630A0F5F1CF222339F0892F8F714E
:1026D0000E9458232CC02223C9F3892F8F710E9496
:1026E0004C2325C0222339F09F7181E001C0880F5F
:1026F0009A95EAF701C080E00E943D2318C022238A
:1027000031F0332319F3802F0E94172410C0332394
:1027100021F3893349F45FEF87EE93E05150804015
:102720009040E1F700C00000802F0E94992388EFBD
:102730008D0D843008F016C129960FB6F894DEBFCF
:102740000FBECDBFDF91CF911F910F91FF90EF9002
:10275000DF90CF90BF90AF909F908F900C94FD260C
:1027600000314FE5140721F481E00E944C23A6CBF1
:1027700001315FE5150709F0B5CB82E0F6CF69E2DC
:10278000EDCD043C2CE5120709F48AC0053C1C453C
:1027900009F053CE41E35BE26AE37BE285C0083C8B
:1027A0005CE5150709F49EC008F497C0093CFCE5F8
:1027B0001F0709F49CC00A3C1C4509F03ECE4DE0C1
:1027C0005BE261E07BE270C0023D4CE51407C0F4BF
:1027D000003D5CE5150708F0C5C00D3CECE51E07A3
:1027E00009F494C008F48DC00E3C2CE5120709F4DE
:1027F000A3C00F3C1C4509F020CE68E086E09EC0D7
:10280000063D5CE5150738F4033D1C4508F0AAC0F9
:102810006BE089E093C00D351D4509F4A3C00DCED2
:102820008091C00480FF31C08E7F8093C00460918E
:10283000C0047091C1048091C2049091C3040E94AD
:102840009F290E94AD288091BF0481608093BF04BE
:10285000FFEF20E742E0F15020404040E1F700C0A8
:10286000000029960FB6F894DEBF0FBECDBFDF91F2
:10287000CF911F910F91FF90EF90DF90CF90BF907D
:10288000AF909F908F900C94CF2881608093C0046C
:1028900061E086953DC04AE95BE263EA7BE204C001
:1028A00043EA5BE26AE97BE229960FB6F894DEBF61
:1028B0000FBECDBFDF91CF911F910F91FF90EF9091
:1028C000DF90CF90BF90AF909F908F900C94A728EF
:1028D0004AE35BE261E37BE2E7CF49E15BE265E289
:1028E0007BE2E2CF45E25BE269E17BE2DDCF41E002
:1028F0005BE26DE07BE2D8CF41EB59E262EC79E23A
:10290000D3CF42EC59E261EB79E2CECF61E081E0D6
:1029100029960FB6F894DEBF0FBECDBFDF91CF91E1
:102920001F910F91FF90EF90DF90CF90BF90AF90ED
:102930009F908F900C945A2B65E082E029960FB6F9
:10294000F894DEBF0FBECDBFDF91CF911F910F91E5
:10295000FF90EF90DF90CF90BF90AF909F908F90BF
:102960000C94932829960FB6F894DEBF0FBECDBF06
:10297000DF91CF911F910F91FF90EF90DF90CF905B
:10298000BF90AF909F908F90089580E008959091B0
:10299000340592FF0DC0282F2871283019F4877F45
:1029A000846006C0282F2471243011F48B7F886046
:1029B00093FF0DC0282F2871283119F4877E846178
:1029C00006C0282F2471243111F48B7E8861209158
:1029D000350520FF0DC0382F3871383019F4877F46
:1029E000816006C0382F3171313011F48E7F8860DC
:1029F00021FF0DC0282F2871283119F4877E8161AD
:102A000006C0282F2171213111F48E7E886194FD3A
:102A1000877E0895AF92BF92CF92DF92EF92FF929E
:102A20000F931F93CF93DF937C015B016A01809129
:102A30005F028A3018F001E010E002C00AE010E006
:102A4000C1E0D0E0F894B501C701F601099578948A
:102A5000811115C021960C171D0794F0CC9F900191
:102A6000CD9F300D300D112480E090E045E34A9574
:102A7000F1F70000019682179307C1F7E3CF81E0D9
:102A8000DF91CF911F910F91FF90EF90DF90CF904A
:102A9000BF90AF900895CF93DF93CDB7DEB728975F
:102AA0000FB6F894DEBF0FBECDBF85E0E0ECF4E0DA
:102AB000DE01119601900D928A95E1F78091BD0497
:102AC0009091BE04A091BF048E839F83A887288520
:102AD00040915B0250915C0260915D0270915E02D8
:102AE0003FB7F8948091300590913105A09132055F
:102AF000B09133053FBF841B950BA60BB70B8436F3
:102B00009105A105B10510F4222329F1809133012B
:102B100090913401875B9D4F4091320150E04930E4
:102B2000510510F048E050E0BE016F5F7F4F0E94FA
:102B3000762F83E090E00E94262E892B11F080E012
:102B40000DC00E943B2660935B0270935C028093F1
:102B50005D0290935E021092BF0481E028960FB64A
:102B6000F894DEBF0FBECDBFDF91CF910895CF9314
:102B7000DF9300D000D0CDB7DEB740914502509131
:102B8000460260914702709148022FB7F8948091F5
:102B9000300590913105A0913205B09133052FBFDA
:102BA000841B950BA60BB70B84369105A105B105C7
:102BB00080F10E947C26DC01CB010296A11DB11D93
:102BC00089839A83AB83BC838091290190912A01E8
:102BD000875B9D4F4091280150E04530510510F032
:102BE00044E050E0BE016F5F7F4F0E94762F82E08D
:102BF00090E00E94262E892B11F080E00BC00E94ED
:102C00003B2660934502709346028093470290935F
:102C1000480281E00F900F900F900F90DF91CF91BD
:102C20000895EF92FF921F93CF93DF9300D000D0CF
:102C300000D0CDB7DEB77B0180E090E00E94262E69
:102C4000892B09F065C04091170150E041155105ED
:102C500011F041E050E06091180170911901675B3B
:102C60007D4FCE0106960E94762F409141025091F1
:102C7000420260914302709144022FB7F894809110
:102C8000300590913105A0913205B09133052FBFE9
:102C9000841B950BA60BB70B84369105A105B105D6
:102CA00038F48AE492E00E94651B9E81891791F1B5
:102CB00081E090E00E94262E892BA1F44091210111
:102CC00050E04630510510F045E050E0609122019F
:102CD00070912301675B7D4FCE0101960E94762F94
:102CE00011E001C010E08AE492E00E94651B91E0CF
:102CF0002E81281390E0192311F10E943B26609346
:102D000041027093420280934302909344020CC0AC
:102D100010E001C011E085E0EAE4F2E0DE01119686
:102D200001900D928A95E1F7112349F085E0FE01AB
:102D30003196ACE3B2E001900D928A95E1F785E01F
:102D4000ECE3F2E0D70101900D928A95E1F7812F33
:102D500026960FB6F894DEBF0FBECDBFDF91CF91A0
:102D60001F91FF90EF90089580913B02811118C050
:102D70008091D80080618093D8008AE18A95F1F72C
:102D800000C08091D90080FD02C082E001C081E0D6
:102D900080933B02823021F40E94BB1E1092850278
:102DA00081E090913B02913009F080E00895F89421
:102DB000E82FE295EF70F0E031A1282F2F7081E02D
:102DC00090E001C0880F2A95EAF7982F90959323F9
:102DD00091A392A1892B82A378940895CF93DF9336
:102DE0008238910569F1B0F48133910509F46FC01F
:102DF00048F48932910509F465C08A32910509F4D5
:102E00006BC06FC08533910509F457C089339105B4
:102E1000B9F067C0833E910571F138F4803E9105A9
:102E2000B1F0823E910511F15CC0863E9105B9F189
:102E3000873E9105C9F1843E910509F052C024C036
:102E40002091340520FD18C121FD16C14AC0809192
:102E5000340580FD0BC18091350580FF0DC1809147
:102E6000340584FD00C183EE90E01AC180913405E1
:102E700082FFFFC0F4CF8091340582FDFAC08091BB
:102E8000350580FDF9C0EBCF8091350581FFFAC093
:102E90008091340584FDE7C087EE90E001C1809108
:102EA000340583FFECC0F4CF8091340583FDE7C087
:102EB0008091350581FDE6C0EBCF8091340585FD1D
:102EC000E4C0E6C08091340585FDE2C0DEC080919B
:102ED000340586FDE0C0E2C08091340586FDDEC089
:102EE000DAC0811522E5920780F5811531E5930757
:102EF00008F088C0811540E29407D0F4811521E0E4
:102F0000920708F0CDC0853A910550F484309105C0
:102F100008F0C6C0019709F0A6C081E090E0C0C0EB
:102F20009C01205E31092830310508F09CC0B8C0F2
:102F3000811530E4930708F496C0811540E59407A5
:102F400008F042C09F70906AABC0811529E59207D6
:102F500028F5811538E5930708F06FC0811543E522
:102F6000940708F454C0811524E5920708F07BC04B
:102F70009C012370332741E050E002C0440F551FED
:102F80002A95E2F7282F2695269580E2289F900122
:102F90001124CA01822B932B9A6882C0EC018115FF
:102FA0003AE5930708F44EC090568115904208F018
:102FB0005AC08D2F8F710E94C714282F2F71CE01F8
:102FC00099279062922B6CC09C0154E0369527950E
:102FD0005A95E1F7922F9370482F437021E030E02B
:102FE00002C0220F331F4A95E2F73C68392B982F15
:102FF0009F709695969540E2949FC0011124822B74
:10300000932B4EC0982F8827816F906A49C09C01EE
:103010002370332741E050E002C0440F551F2A952A
:10302000E2F7282F2695269580E2289F900111240B
:10303000CA01822B932B9C6833C0982F8827806FFE
:10304000906A2EC08F700E94C71494E0D695C795E1
:103050009A95E1F7CF70D0E0DC2FCC27D0699E01A4
:10306000282BC9011DC080E090E01AC089E390E0E0
:1030700017C082EE90E014C080EE90E011C086EEA2
:1030800090E00EC084EE90E00BC089E290E008C0B2
:1030900085E390E005C08AE290E002C081E390E021
:1030A000DF91CF910895CF9384E090E00E94FB2EB2
:1030B000C82F82E290E00E94FB2E2C2F30E0A90165
:1030C000582BCA01CF91089580E090E00E94092F0B
:1030D000893E9E4F11F40C947A2880E0089569EEA1
:1030E0007EEF80E090E00E942D2F60E082E090E093
:1030F0000E940F2F60E083E090E00E940F2F10925B
:10310000310260E084E090E00E940F2F60E082E2F4
:1031100090E00E940F2F60E085E090E00E940F2F6A
:1031200060E086E090E00E940F2F6FEF87E090E074
:103130000E940F2F40E050E0BA0188E090E00E942A
:10314000212F60E08DE090E00E940F2F40E050E0E2
:10315000BA0188E190E00E94212F60E087E190E0D1
:103160000E940F2F40E050E0BA018CE190E00E94F5
:10317000212F60E070E080E290E00E942D2F40E07F
:1031800050E0BA0188E190E00E94212F80E00E9487
:103190004D280E946B2840E050E0BA018FE090E09B
:1031A0000E94212F40E050E0BA0183E190E00C94AE
:1031B000212F9091300280912F02892B90912E0225
:1031C000892B8093D501E0912905F0912A0530974C
:1031D00099F090913A01992349F09091340597FF25
:1031E00005C08093D60185E08093D5010280F381EC
:1031F000E02D85ED91E00994089580912D02909144
:10320000FC01891719F08F5F8770FBCF08957F92BB
:103210008F929F92AF92BF92CF92DF92EF92FF92E6
:103220000F931F93CF93DF93CDB7DEB72F970FB6D2
:10323000F894DEBF0FBECDBFAE014F5F5F4F7A0186
:103240008AE0DA011D928A95E9F701E511E06A0149
:1032500086E5882E81E0982EAA24A394B12CF8014B
:1032600080818F3F09F448C0F894E82FE295EF7011
:10327000F0E021A18F70A50102C0440F551F8A956F
:10328000E2F7CA01922F982B91A392A180958923EE
:1032900082A3789400C0EBE5F1E020E030E0712CEF
:1032A00081918F3FB9F0A82FA295AF70B0E09096B2
:1032B0004C9150E08F70DA0102C0B595A7958A95C0
:1032C000E2F7A0FD07C08A2D022E01C0880F0A94E4
:1032D000EAF701C080E0782A2F5F3F4F26303105A2
:1032E000F9F6F80180818F3F11F00E94D716F0EABD
:1032F000FA95F1F7D6017C920F5F1F4FBFEFCB1A03
:10330000DB0A8016910609F0AACF4AE050E0B70127
:1033100088E891E00E94692F8C01892B41F08AE0B6
:10332000F701A8E8B1E001900D928A95E1F7F090DD
:1033300093010115110549F081E0809334020E9448
:10334000472690933302809332028091340288237F
:10335000B1F080913202909133020E942C260597A1
:1033600070F0A8E8B1E0EF2DF0E0E653FE4F8D914C
:10337000819321E0AD38B207D1F7109234020115E4
:10338000110509F0F2C00E94B416E0919301882360
:1033900009F46CC07E014BE0E40EF11C85E0D7011E
:1033A0001D928A95E9F70E2F10E006531E4F80916B
:1033B0005F028A3048F441E156E1B701C8010E943A
:1033C0000A158823F1F00AC08091350290913602E7
:1033D0000E942C26843F914070F724C047EB55E1B2
:1033E000B701C8010E940A15882359F04BE455E142
:1033F000B701C8010E940A15882319F010925F02D4
:1034000019C080915F028F3F19F08F5F80935F0238
:1034100080915F028A3070F00E94472690933602B6
:1034200080933502E0919201F0E0E653FE4F80E098
:1034300090E015C0E0919201F0E0E653FE4FD70115
:103440009E01205F3F4F00E08D919081981711F011
:10345000808301E031962A173B07B1F788C01192AB
:10346000019685309105D9F701E081C0F0E0E6537F
:10347000FE4FF89485E0AAE4B2E001900D928A959F
:10348000E1F78AE492E00E94651B809349027894F8
:10349000F894C0904F02D0905002E0905102F0900A
:1034A00052028091370290913802A0913902B09176
:1034B0003A02C816D906EA06FB06D1F0C0923702D6
:1034C000D0923802E0923902F0923A020E94B41689
:1034D00081110EC00E943B26C61AD70AE80AF90AD3
:1034E000C0922B05D0922C05E0922D05F0922E056E
:1034F0007894F89480915A028823A9F180FF10C033
:103500008091530280FF0AC09091C0049160909313
:10351000C00460E086950E945A2B02C00E94432B93
:1035200080915A0281FF09C020E0409156026091CB
:103530005502809154020E949E2A80915A0282FF75
:1035400009C080915902882319F00E94B42802C052
:103550000E94AD2880915A0283FF03C081E08093CE
:10356000BA0410925A02789402C001E010E0802F51
:103570002F960FB6F894DEBF0FBECDBFDF91CF916F
:103580001F910F91FF90EF90DF90CF90BF90AF9081
:103590009F908F907F900895CF93DF938A3011F49E
:1035A00081E003C08D3029F480E0DF91CF910C944D
:1035B000A627682F8091990490919A0426E0FC0137
:1035C000A3E9B4E001900D922A95E1F7603E30F056
:1035D00026E0FC0111922A95E9F70AC0F6E06F9FF8
:1035E000B00111246C517C4F46E050E00E94F22E55
:1035F000C0919904D0919A0446E050E0BE0183E95D
:1036000094E00E94692F892B49F19E012359324091
:10361000A90185E0569547958A95E1F781E090E00C
:10362000BC0102C0660F771F4A95E2F740919102F4
:1036300050919202462B572B2B5F3F4F65E03695FA
:1036400027956A95E1F702C0880F991F2A95E2F73E
:10365000842B952B90939202809391029E012D587A
:10366000324040919002642F70E0C9010E94DE2E2A
:10367000481B463010F4240F311D211582E0380715
:1036800010F020E030E02D563D4F30939A04209307
:103690009904DF91CF910895CF93DF93EC01FE0160
:1036A0008491882321F00E94CC1A2196F8CFDF91D3
:1036B000CF91089580918F02982F9670963011F4D3
:1036C000886001C0877F0C943D23FC01AC014B5FF7
:1036D0005F4F8FEF91E32191822728E030E087FF51
:1036E00003C0880F892701C0880F21503109B9F71D
:1036F000E417F50781F70895EF92FF920F931F9358
:10370000CF93DF93EC017B0164E670E088E70E94D1
:10371000B32B8C01EC0EFD1ECE15DF0561F017FDFD
:103720000AC0FE01849164E670E00E94342C8C0192
:103730002196892B89F30E94B82CC801DF91CF9183
:103740001F910F91FF90EF9008951F93CF93DF93F8
:10375000CDB7DEB7AA970FB6F894DEBF0FBECDBFC8
:10376000E7E8F2E08091F100819342E0EF38F4075E
:10377000C9F780918802833009F462C030F4813047
:1037800071F0823009F49CC0B3C08A3009F488C05B
:103790008B3009F46DC0893009F0AAC020C0809137
:1037A0008702813A09F0A4C08091E800877F809366
:1037B000E80080918B0290918C02892B21F460E2C9
:1037C00083E692E003C060E080E090E070E00E9459
:1037D00097258091E8008B778093E80089C08091DD
:1037E0008702813209F084C080918B0290918C0213
:1037F000009719F0029709F07BC08091E800877F5D
:103800008093E8008091E80082FD05C080918502E8
:103810008111F8CF6DC02091F3008091F20090E00B
:10382000922B029729F48091F1008B7F813021F453
:103830008091F100809362028091E8008B7754C000
:1038400080918702813A09F053C080918B02909158
:103850008C02892B09F04CC08091E800877F80930F
:10386000E8008091E80080FFFCCF80913A0137C0EA
:10387000809187028132E1F580918B0290918C02D8
:10388000892BB1F58091E800877F8093E8000E9442
:1038900043258091890280933A010E946B2328C0BE
:1038A00080918702813221F58091E800877F8093A3
:1038B000E8000E94432580918A028093610218C02B
:1038C00080918702813AA1F48091E800877F8093FC
:1038D000E8008091E80080FFFCCF80916102809336
:1038E000F1008091E8008E778093E8000E944325E4
:1038F0008091E80083FFDDC180918702909188026A
:10390000492F50E04A30510508F0D3C1FA01EB5875
:10391000FF4F0C944F2F803821F0823809F0C9C135
:1039200008C08091830290918402992389F082607B
:103930000FC080918B028F70873008F0BAC18093DE
:10394000E9008091EB0085FB882780F91092E9005F
:103950009091E800977F9093E8008093F100109297
:10396000F10070C1282F2D7F09F0A3C1882319F021
:10397000823061F09EC180918902813009F099C145
:10398000933009F080E0809384022EC080918902F8
:1039900081112AC080918B028F702FEF280F263063
:1039A00008F087C18093E9002091EB0020FF1CC044
:1039B000933021F48091EB00806214C09091EB0071
:1039C00090619093EB0021E030E0A90102C0440F28
:1039D000551F8A95E2F74093EA001092EA00809121
:1039E000EB0088608093EB001092E9008091E80082
:1039F000877F8093E8000E9443255BC1811159C1F4
:103A0000109189021F778091E3008078812B809349
:103A1000E3008091E800877F8093E8000E944325BF
:103A20008091E80080FFFCCF8091E3008068809364
:103A3000E300111102C082E001C083E0809385029F
:103A400038C18058823008F034C120918902309109
:103A50008A022C3D53E0350779F583E08A838AE2B8
:103A600089834FB7F894DE01139620E03EE051E2DF
:103A7000E32FF0E050935700E49120FF03C0E2955C
:103A8000EF703F5FEF708E2F90E0EA3010F0C79636
:103A900001C0C0968D939D932F5F243149F74FBF8E
:103AA0008091E800877F8093E8006AE270E0CE01B1
:103AB00001960E949725B4C080918B0290918C0250
:103AC000432F552743305105A9F068F44130510583
:103AD00009F4FEC04230510509F0EBC08BE590E0DF
:103AE000EBE4F3E04BC04132510529F1423251057C
:103AF00089F1DFC0C901992781309105A1F058F003
:103B0000029709F0D6C0E8EBF3E0E4918E2F90E045
:103B1000E8EBF3E030C0E0EEF3E0E4918E2F90E0CC
:103B2000E0EEF3E028C0E2EDF3E0E4918E2F90E0C8
:103B3000E2EDF3E020C08330910508F0BAC0880FB1
:103B4000991FFC01EC58FE4F0190F081E02D89E0B7
:103B500090E014C08330910508F0ABC0FC01EE0F7B
:103B6000FF1FE259FE4F0190F081E02DDC01A559C5
:103B7000BE4F8C9190E0009709F49BC02091E80023
:103B8000277F2093E80020918D0230918E02281724
:103B9000390708F4C90140E0009789F120918502B6
:103BA000222309F43DC02530D9F12091E80023FDFE
:103BB00037C02091E80022FD2FC02091E80020FFAF
:103BC000EBCF4091F3002091F20030E0342B0097CE
:103BD00059F02830310540F444914093F10031967A
:103BE00001972F5F3F4FF3CF41E02830310509F0B7
:103BF00040E02091E8002E772093E800CDCF4111DE
:103C0000CDCF0AC080918502882351F0853041F0E4
:103C10008091E80083FD04C08091E80082FFF2CF2C
:103C20008091E8008B778093E80043C0803809F0EA
:103C300040C08091E800877F8093E80080918602F1
:103C40008093F1008091E8008E77D3CE811131C04E
:103C50008091890290918A029927029754F5809168
:103C6000E800877F8093E800109189021093860214
:103C70000E944325111106C08091E30087FD02C018
:103C800081E001C084E08093850242E061EC81E044
:103C90000E94622542E261EC84E00E94622542E2D9
:103CA00061EC82E00E94622542E260EC83E00E94C7
:103CB00062258091E80083FF10C08091E800877F33
:103CC0008093E8008091EB0080628093EB0005C058
:103CD00082E190E0E6EAF3E051CFAA960FB6F894BD
:103CE000DEBF0FBECDBFDF91CF911F9108951F9210
:103CF0000F920FB60F9211242F933F934F935F9320
:103D00006F937F938F939F93AF93BF93CF93DF93E3
:103D1000EF93FF93C091E900CF708091EC00D82F12
:103D2000D17080FDD0E81092E9008091F000877F8B
:103D30008093F00078940E94A51B1092E900809176
:103D4000F00088608093F000CD2BCF70C093E90025
:103D5000FF91EF91DF91CF91BF91AF919F918F91A3
:103D60007F916F915F914F913F912F910F900FBE77
:103D70000F901F901895E8EDF0E080818E7F808392
:103D80001092E2001092DA001092E100A0EEB0E092
:103D90008C9181608C9380818F77808319BCA7ED93
:103DA000B0E08C918E7F8C9380818F7E8083109287
:103DB00060020895CF92DF92EF92FF920F931F93CC
:103DC000CF93DF93C8EDD0E088818F7E8883E7EDC5
:103DD000F0E080818160808384E082BF81E0809315
:103DE000600288818E7F888302EE10E0F8011082E5
:103DF0001092DA0081EEC82ED12CF6011082888153
:103E00008F77888388818068888388818F7D888385
:103E100019BC1092850210928602109284021092B0
:103E2000830290EEE92EF12CF70180818B7F808355
:103E300088818160888342E060E080E00E946225A2
:103E4000F60180818E7F8083F8018081816080838C
:103E5000808188608083F70180818E7F8083888164
:103E600080618883DF91CF911F910F91FF90EF9038
:103E7000DF90CF9008951F920F920FB60F921124EA
:103E80002F933F934F935F936F937F938F939F9362
:103E9000AF93BF93EF93FF938091E10082FF09C03E
:103EA0008091E20082FF05C08091E1008B7F8093CA
:103EB000E1008091DA0080FF2AC08091D80080FF65
:103EC00026C08091DA008E7F8093DA008091D9003D
:103ED00080FF18C080E189BD82E189BD09B400FE80
:103EE000FDCF81E0809385028091600281110FC037
:103EF0000E94BB1E0E94DA1E8091E20084608093C3
:103F0000E20005C019BC10928502109260028091F7
:103F1000E10080FF17C08091E20080FF13C0809114
:103F2000E2008E7F8093E2008091E20080618093C6
:103F3000E2008091D80080628093D80019BC85E0AF
:103F4000809385028091E10084FF2EC08091E20081
:103F500084FF2AC080E189BD82E189BD09B400FEE9
:103F6000FDCF8091D8008F7D8093D8008091E100B3
:103F70008F7E8093E1008091E2008F7E8093E2004B
:103F80008091E20081608093E20080918602882324
:103F900011F084E007C08091E30087FD02C081E05A
:103FA00001C083E0809385028091E10083FF27C0F8
:103FB0008091E20083FF23C08091E100877F80939E
:103FC000E10082E080938502109286028091E100F8
:103FD0008E7F8093E1008091E2008E7F8093E200EB
:103FE0008091E20080618093E20042E060E080E046
:103FF0000E9462258091F00088608093F000FF911C
:10400000EF91BF91AF919F918F917F916F915F9150
:104010004F913F912F910F900FBE0F901F901895C9
:104020002091E4003091E50095E64091EC00842F6A
:10403000817040FF23C08091E80080FD1DC0809109
:104040008502882399F0853099F08091EB0085FDF9
:1040500011C04091E4005091E5002417350729F381
:10406000915011F09A01E1CF84E0089582E0089523
:1040700083E0089581E0089580E008954091E8008C
:1040800042FFDDCF0895EF92FF920F931F93CF93DE
:10409000DF937C018B010E941020811119C0E70180
:1040A00001151105A1F08091E80085FD0AC08091FD
:1040B000E8008E778093E8000E941020882381F327
:1040C00007C089918093F10001501109E9CF80E088
:1040D000DF91CF911F910F91FF90EF9008950F9373
:1040E0001F93CF93DF938091FB0182958F7009F02E
:1040F0005DC08091F801882309F458C080912D0299
:104100001091FC016091F6017091F701C091F901E5
:10411000D091FA0191E06F3F09F090E0292F06E07D
:10412000811709F443C0209721F07F3F21F030E050
:1041300003C031E001C0322F90E030FD34C0089F51
:10414000F001099FF00D1124DF01A350BE4F11961D
:104150003C911197371327C03C91361324C0129617
:104160003C91129731111FC013964D915C91149799
:104170004C1B5D0B483C5105B0F48091FB018F70E6
:1041800080618093FB01EE5FFD4F80818F708061C5
:10419000808386EF91E00E94650EDF91CF911F91A1
:1041A0000F910C94FD1801968770BACFDF91CF91D3
:1041B0001F910F910895CF92DF92FF920F931F935B
:1041C000CF93DF936C0100918F0280913102082B15
:1041D000C7E0D0E010E0C8010C2E02C0959587958D
:1041E0000A94E2F780FD04C02197A8F7F12C09C0DA
:1041F000FC2EB6018C2F0E9440280E94EE160197DB
:1042000099F38F2DDF91CF911F910F91FF90DF9048
:10421000CF900895CF93DF93EC010E94DB20BE0185
:104220000E9440280E94EE16DF91CF910895FC0174
:10423000808191810E940A21292F2F70E92FE29518
:10424000EF704E2F50E0FA013297EE30F105B8F4DE
:10425000E158FF4F0C944F2F803F99F018F4883E9F
:1042600070F40FC0843F59F40CC0883E50F0813F79
:1042700031F407C0822F869586958695089580E053
:10428000089581E008959F92AF92BF92CF92DF92FE
:10429000EF92FF920F931F93CF93DF93CDB7DEB7CB
:1042A00061970FB6F894DEBF0FBECDBF8C0185E0DD
:1042B000F801DE011D9601900D928A95E1F7F80153
:1042C000E2809091F6016091F7014091F9015091DF
:1042D000FA014115510531F06F3F31F481E09F3F04
:1042E00019F403C081E001C080E0F82FF1709F2E27
:1042F00080FD1AC1F80130812181C380D48086EF0E
:10430000A82E81E0B82EF090F801F601E41BF50B21
:10431000FF2009F4C6C08091FB01E83CF10508F0DC
:1043200091C0482F407F09F050C0621311C0931311
:104330000FC0FE2CE1100CC08F7080618093FB01D8
:10434000C5010E94650E8091FB01F801858329C19A
:10435000CD2831F02F3F31F481E03F3F19F403C005
:1043600081E001C080E080FD03C081E08E2502C0B5
:1043700080E090E0F82FF170FF2E80FF1CC080914C
:104380002D024091FC0156E0841709F4E8C090E04A
:10439000589FF001599FF00D1124E350FE4F6181A9
:1043A000261306C06081631303C06281E61203C056
:1043B00001968770E9CFFE2CEE2009F4F2C08091BF
:1043C000FB0181608093FB0149C0621306C0931317
:1043D00004C0E11002C0F80186C0C8010E94172184
:1043E000882351F1EE2041F12091FB01822F82952B
:1043F0008F7090E0029774F08091F6019091F70130
:1044000098878F831986DB86CA862C87CE0107960C
:104410000E94650E86E0F801A6EFB1E001900D92D2
:104420008A95E1F70E946F200AC06217C9F0C8019F
:104430000E94172181111EC0C8010E94650EFF2431
:10444000F394AFC0482F407F81F786EF91E00E9440
:10445000650E86E0F50111928A95E9F7F12CA1C06D
:104460009313E5CFE110E3CFF8018583C8010E94E3
:10447000650E54C0EE2001F32091FB01822F82953E
:104480008F7090E0029734F28091F6019091F701DD
:104490009A8389831B82DD82CC822E83CE01019692
:1044A000B7CFE83CF105D0F5FE2CEE2029F26213DF
:1044B00027C0931325C02091FB0120FD18C0822F37
:1044C00082958F70482F50E04115510581F0F80119
:1044D00025834F30510541F08F5F982F9295907F43
:1044E000822F8F70892B8583C8010E94650E86E01C
:1044F000F801A6EFB1E001900D928A95E1F751C065
:10450000C8010E941721811185CF8091FB01816034
:104510008093FB01C8010E94650E43C086E0F5014F
:1045200011928A95E9F73DC0EE2009F485CFC801C4
:104530000E941721F82E882309F47ECF86E0F80127
:10454000A6EFB1E001900D928A95E1F78091F60116
:104550009091F7010E940A210E946F2022C03D879E
:104560002E878D859E850E940A21292F22952F70E6
:10457000223028F49F7039F0811105C00BC024301F
:1045800028F49F7049F4805E883020F0C8010E94B2
:10459000650E9F2CF92C05C0F8019581907F99F745
:1045A000F9CF8F2D61960FB6F894DEBF0FBECDBF49
:1045B000DF91CF911F910F91FF90EF90DF90CF90FF
:1045C000BF90AF909F900895292F220F920F990FBF
:1045D000890F682F669566956695982F977083E08A
:1045E000689FB001112440E050E080E0FB01E40F3F
:1045F000F51FE156FB4F208130E0092E02C03695B1
:1046000027950A94E2F721703327042E01C0220F68
:104610000A94EAF7822B4F5F5F4F4330510531F721
:104620000895292F220F920F990F890FE82FE695F1
:10463000E695E695877051E001C0550F8A95EAF737
:1046400083E0E89FF0011124E156FB4F20E030E0C9
:1046500070E04081CB01022E02C0969587950A94A6
:10466000E2F78170819584278523842781932F5FCA
:104670003F4F2330310569F70895982F9670963093
:1046800011F4886001C0877F80938F0210922F02FF
:1046900010922E020C94D91821E030E001C0220FB4
:1046A0008A95EAF7209580918F0282230C943D230E
:1046B00021E030E001C0220F8A95EAF780918F0255
:1046C000822B0C943D238093310210922F02109282
:1046D0002E020C94D9181092300280913A0188234E
:1046E00031F08091340587FF02C08EE101C086E081
:1046F000E7EDF1E0DF011D928A95E9F710922F02B4
:1047000010922E020C94D918882341F08095909134
:1047100030028923809330020C94D918089588239D
:1047200039F090913002892B809330020C94D91883
:104730000895882309F47AC0682F823869F40E94AA
:10474000FD2681FF73C069E385ED91E00E94C826D4
:104750000E94D91869E30EC0833891F40E94FD26A7
:1047600080FF64C063E585ED91E00E94C8260E9449
:10477000D91863E585ED91E00E94A0260C94D91824
:10478000843869F40E94FD2682FF50C067E485EDFD
:1047900091E00E94C8260E94D91867E4EBCF8CEF05
:1047A000860F813A38F380E2860F883070F46770A4
:1047B00081E090E001C0880F6A95EAF780959091BA
:1047C0003002892380933002D9CF8BE5860F833066
:1047D000A0F480919B0490919C04892B39F1109254
:1047E0009C0410929B04E0912905F0912A053097D2
:1047F000E9F00680F781E02D16C0685A6731B0F401
:1048000080919D0490919E04892B81F010929E04CA
:1048100010929D04E0912905F0912A05309731F01E
:104820000084F185E02D80E090E009940895CF9315
:10483000882309F49CC0C82F8238B1F40E94FD2659
:1048400081FD95C069E385ED91E00E94C8260E9434
:10485000D9182FEF81EE94E0215080409040E1F78D
:1048600000C0000069E317C08338D1F40E94FD2620
:1048700080FD7DC063E585ED91E00E94C8260E9421
:10488000D9182FEF81EE94E0215080409040E1F75D
:1048900000C0000063E585ED91E00E94A02664C0A1
:1048A0008438B1F40E94FD2682FD61C067E485ED85
:1048B00091E00E94C8260E94D9182FEF81EE94E063
:1048C000215080409040E1F700C0000067E4E3CF52
:1048D0008CEF8C0F813AC0F580913A018823E1F08A
:1048E0008091340587FF18C0EC2FE695E695E69594
:1048F000F0E0EB52FE4F8281282F30E04C2F4770C2
:1049000081E090E002C0880F991F4A95E2F7822368
:104910009323892B61F412C0E7EDF1E08DED91E076
:104920002191C21721F08E179F07D1F707C06C2F76
:1049300085ED91E00E94A0260E94D9186C2F85ED8C
:1049400091E00E94C82610C080E28C0F883078F475
:10495000C77081E090E001C0880FCA95EAF7909196
:104960003002892B80933002CF910C94D918CF91CB
:1049700008951F93CF93DF93182F893319F0C0E068
:10498000D0E002C0C0E5D0E0812F0E94172420971C
:1049900041F08FE99FE00197F1F700C000002197F7
:1049A000F6CF812FDF91CF911F910C949923089519
:1049B000089508950895809162020895CF93DF933A
:1049C00020913A01222339F02091340527FF03C0BA
:1049D00060E224E002C068E021E02093E9002FEFCC
:1049E0003091E800215035FD06C035ED3A95F1F7DC
:1049F00000002111F5CF2091E80025FF1DC0EC013A
:104A000080913A01811105C040E050E068E070E01B
:104A100003C070E040E050E0CE010E94432080914E
:104A2000E8008E778093E80080E2FE01A3E6B2E022
:104A300001900D928A95E1F7DF91CF910895CF9380
:104A4000DF93EC01E0ECF4E0438162818C810E9411
:104A5000812A8C818F5F8C83DF91CF910895CF93D2
:104A6000DF93EC01EC81F0E0EC5DF64F4491E0EC7B
:104A7000F4E0628181810E94812A8C818F5F8C8326
:104A8000DF91CF9108958091870287FF11C08091B7
:104A9000E80082FD05C0809185028111F8CF11C028
:104AA0008091E8008B770BC080918502882349F0C4
:104AB0008091E80080FFF8CF8091E8008E778093A6
:104AC000E8000895982F973068F59093E9009817BB
:104AD00039F07091EC002091ED005091F00003C08E
:104AE000242F762F50E021FD02C09F5FECCF309144
:104AF000EB003E7F3093EB003091ED003D7F309333
:104B0000ED003091EB0031603093EB007093EC00DE
:104B10002093ED005093F0002091EE0027FDE5CFAB
:104B200080E008958F708093E90081E008952091DE
:104B30008D0230918E022617370748F061157105F6
:104B400039F42091E8002E772093E80001C0B901E4
:104B5000FC0120E06115710579F1809185028823BF
:104B6000F1F18530F1F18091E80083FD3CC0809146
:104B7000E80082FD2EC08091E80080FFEBCF2091FD
:104B8000F3008091F20090E0922B6115710551F0D5
:104B90008830910538F421912093F100615071091A
:104BA0000196F3CF21E0089709F020E08091E8001A
:104BB0008E778093E800CECF2111CFCF0AC08091AD
:104BC0008502882361F0853061F08091E80083FDE3
:104BD0000AC08091E80082FFF2CF80E0089582E071
:104BE000089583E0089581E0089587E797E790931B
:104BF0000108809300089AE088E10FB6F894A89520
:104C0000809360000FBE90936000FFCF78941F9256
:104C10000F920FB60F9211248F939F93AF93BF9370
:104C20008091300590913105A0913205B091330506
:104C30000196A11DB11D8093300590933105A0937D
:104C40003205B0933305BF91AF919F918F910F9033
:104C50000FBE0F901F9018959C014FB7F89480914C
:104C6000300590913105A0913205B09133054FBFC9
:104C7000821B930B08952FB7F894609130057091C3
:104C8000310580913205909133052FBF08952FB7DC
:104C9000F8948091300590913105A0913205B09142
:104CA00033052FBF08951F920F920FB60F92112454
:104CB0008F939F93AF93BF9380912F05811113C062
:104CC0008091300590913105A0913205B091330566
:104CD0004196A11DB11D8093300590933105A0939D
:104CE0003205B0933305BF91AF919F918F910F9093
:104CF0000FBE0F901F9018950F931F930E94B4162C
:104D0000882321F01F910F910C943B260E943B2693
:104D100000912B0510912C0520912D0530912E0529
:104D2000600F711F821F931F1F910F9108950E94A2
:104D3000B41681110C9447260E947C26CB0108955D
:104D400020913A012223C9F02091340527FF15C094
:104D5000262F2695269526952E31C8F4FC01E20FC4
:104D6000F11D677081E090E001C0880F6A95EAF755
:104D700080959281892382830895FC010696228181
:104D8000621301C012823196E817F907C1F708953E
:104D900020913A012223C1F02091340527FF14C04D
:104DA000262F2695269526952E3130F5FC01E20F0B
:104DB000F11D677081E090E001C0880F6A95EAF705
:104DC0009281892B82830895FC0132962FEF30E087
:104DD0004191641789F02F3F19F4411101C0232F2D
:104DE0003F5F3630A9F72F3F39F0FC01E20FF11D8C
:104DF00027FDFA956283089508950E94B4168823CA
:104E000051F0E0912905F0912A05309721F00190A9
:104E1000F081E02D099480E008950F931F93CF93C4
:104E2000DF93C42FD22FFC0182818823C9F04093E5
:104E300028050E944726909327058093260580E247
:104E40008C0F883008F057C0C77081E001C0880F10
:104E5000CA95EAF7DF91CF911F910F910C948F23A0
:104E600080912805481330C0809126059091270530
:104E70000E942C26883C910538F510E21D0FCD17B5
:104E8000B9F080E28C0F883040F4C77081E001C037
:104E9000880FCA95EAF70E948423183028F581E02C
:104EA0009D2F977001C0880F9A95EAF70E948F2373
:104EB000802F0E94B9241830F0F4D77081E001C02F
:104EC000880FDA95EAF70AC080E28C0F883098F4F0
:104ED000C77081E001C0880FCA95EAF7DF91CF91D2
:104EE0001F910F910C948423802FDF91CF911F91FC
:104EF0000F910C94B924DF91CF911F910F910895D8
:104F0000809125058823F9F00E943B26DC01CB0126
:104F1000805A9541AF4FBF4F809320059093210554
:104F2000A0932205B09323058091240581110BC025
:104F300062E070E084E09CE00E947C1B892B19F405
:104F400081E080932405809124050895CF93E82F74
:104F50002091990430919A04235932404091900253
:104F6000642F70E0C9010E94DE2E481B842FEE23BF
:104F700051F066E00E94432FC82FC150A8F080E294
:104F80000E94CC1AFACFA901480F511D4115524079
:104F900018F080E020E030E0280F311D2D563D4F05
:104FA00030939A0420939904CF910895CF93DF937F
:104FB000C7E0D2E060E0CE010E940F2F2196C1151C
:104FC00084E0D807B9F7DF91CF910895CF92DF92AF
:104FD000EF92FF920F931F93CF93DF93C0E0D0E047
:104FE0008E0108581F4F6E018CE0C80ED11CFE01C7
:104FF000EC5DF54FE590F4906F2DCE0187960E9401
:105000000F2F6E2DCE0188960E940F2F2296CC1561
:10501000DD0569F70C171D0731F7E801003E114067
:10502000F9F6DF91CF911F910F91FF90EF90DF90F4
:10503000CF9008950F931F93CF93DF93C42FD0E0A9
:10504000CC0FDD1F2CE0629FC00DD11D112438E76D
:10505000839FC00DD11D1124CE0187960E94FB2E87
:10506000082F10E0102F0027CE0188960E94FB2EFB
:105070009801282BC901DF91CF911F910F910895BD
:10508000462F843038F47A3028F4663018F4672FCD
:105090000C941A2880E090E00895CF93C82F8111D6
:1050A00002C06FEF01C061E283E290E00E940F2F27
:1050B000C11102C06FEF01C060E184E290E00E9484
:1050C0000F2FC11102C06FEF01C065E185E290E0D2
:1050D000CF910C940F2F80E00E944D2860E086E273
:1050E00090E00E940F2F0E94E6270E94D62781E0C1
:1050F0000C944D2883E290E00E94FB2E813281F4D3
:1051000084E290E00E94FB2E803151F485E290E031
:105110000E94FB2E91E0853109F090E0892F01C0BB
:1051200080E081700895CF93DF93C82FD62F0E941F
:105130007D298C1730F08D1720F4DF91CF910C94DE
:10514000A32B61E08C2FDF91CF910C945A2B8823F5
:1051500011F0FA0101C0FB010994EDEBF4E01182BA
:1051600082818460828308956091C004669570E0B6
:1051700041E050E08BE391E00E945C2F892B19F411
:1051800081E08093BE040E9497269093B804809398
:10519000B7048091BF0484608093BF040895809118
:1051A000C00480FF0AC0539A8BB1877F9BB198607F
:1051B0002FB7F894E5ECF4E00BC0E5ECF4E01182D5
:1051C00010821282339635E0EF31F307C1F7EBCF4F
:1051D00035E0EF31F30789F0319148E09BB90000E9
:1051E00000C037FF8BB9330F000000C000C000C003
:1051F0008BB900C04A9591F7EBCF2FBF8FE594E0B4
:105200000197F1F700C000000895EF92FF920F930D
:105210001F93CF93DF937C01FC018481811109C02E
:1052200081E0848310921F0592E090933D0180936A
:105230003C01C5ECD4E0FE0111821082128233964B
:1052400085E0EF31F807C1F700E010E080911F051D
:10525000082E000C990B08171907ACF080913D013E
:10526000082E000C990B801791076CF04091C30435
:10527000473908F046E99E016091C2048091C1045B
:105280000E94EB2903C0198218821A820F5F1F4FF8
:1052900023960E311105D1F60E94CF2880913C0152
:1052A00090911F05980F90931F0520913D01280FA5
:1052B00020933D01121614F49D313CF081958093AA
:1052C0003C01813011F4F7011482DF91CF911F91DD
:1052D0000F91FF90EF9008959091C00490FF0CC043
:1052E000E5ECF4E0818360834283339695E0EF310F
:1052F000F907C1F70C94CF2808958091C00480FF6E
:1053000002C08695089580E008958091C004282FFA
:10531000269530E02115310519F48170826005C0B1
:105320002C30310524F0817086618093C004809117
:10533000C304873918F086E98093C3040895CF9297
:10534000DF92EF92FF926B017C010E948529B701E9
:10535000A60188E090E0FF90EF90DF90CF900C9452
:10536000212F8091C404882319F081508093C404B4
:105370006091C0047091C1048091C2049091C304F3
:105380000C949F298091C404833018F48F5F80931C
:10539000C4046091C0047091C1048091C2049091D2
:1053A000C3040C949F29E0ECF4E083E08083118235
:1053B0008FEF828386E983831482ADEBB4E012968B
:1053C0008C911297836012968C9360817181828197
:1053D00093810C949F29AF92BF92CF92DF92EF926C
:1053E000FF920F931F93CF93DF93E82EF62EE901E0
:1053F000E42FF0E0611106C0EA5FF34FE4914E2F15
:105400002E2F71C0062F10E0EA5FF34F4491F42F66
:10541000C42ED12C26E0829FC00111242FEF30E052
:10542000B9010E94DE2E5BEA5603C001579F900D22
:1054300011248E0D911D8E0D911D582F550F580F53
:10544000D901A01BB10BAC9DC001AD9D900DBC9DC1
:10545000900D1124E92FF59ED0011124AB2FBB270D
:105460007901EA1AFB0AEC9CD001ED9CB00DFC9C82
:10547000B00D11245901A51AB108A09E7001A19E7A
:10548000F00CB09EF00C1124EF2CFF242E193F09D4
:105490002C9D80012D9D100D3C9D100D1124212F60
:1054A0006230710591F048F461157105E1F06130E9
:1054B0007105B9F4242F4B2F16C06430710569F0C3
:1054C00040F06630710579F00CC0242F492FE12F90
:1054D0000AC0492FEF2F2B2F06C0292FE42F412F71
:1054E00002C0292FEB2F49832883EA83DF91CF91D4
:1054F0001F910F91FF90EF90DF90CF90BF90AF90F2
:105500000895CF93DF9300D01F92CDB7DEB790916F
:10551000C00490FF0DC0473908F046E99E012F5F97
:105520003F4F0E94EB294B8169818A810E946C293F
:105530000F900F900F90DF91CF910895EF92FF920F
:105540000F931F93CF93DF9300D01F92CDB7DEB799
:10555000082FF62E142FE22E8091C00480FF47C042
:10556000E82FE695F0E0E658FE4F90819093BD0459
:105570008E7F823081F4473908F046E99E012F5F23
:105580003F4F6F2D802F0E94EB294B8169818A81CB
:105590000E946C2909C0923019F41091C30404C010
:1055A000963011F40091C1048091C104081308C021
:1055B0008091C204F81204C08091C304181729F026
:1055C0008091BF0482608093BF040093C104F09275
:1055D000C2041093C304EE2051F06091C004709196
:1055E000C1048091C2049091C3040E949F290F902E
:1055F0000F900F90DF91CF911F910F91FF90EF903F
:105600000895E0ECF4E0438128E0421B08F440E018
:1056100021E0628181810C949E2AE0ECF4E04381D8
:1056200028E0420F08F44FEF21E0628181810C9461
:105630009E2AE0ECF4E0628128E0621B08F460E05E
:1056400021E0438181810C949E2AE0ECF4E06281A8
:1056500028E0620F08F46FEF21E0438181810C9410
:105660009E2AE0ECF4E0818121E043816281885050
:105670000C949E2AE0ECF4E0818121E04381628178
:10568000885F0C949E2AE0ECF4E080818E7F80831A
:105690000E94AD28EDEBF4E08281816082832FEFE0
:1056A00080E792E0215080409040E1F700C0000088
:1056B0000C94CF289091C00490FF3BC09170811151
:1056C00002C0926006C08C3010F0966102C0880F54
:1056D000982B9093C0048091BF0481608093BF0495
:1056E000662351F06091C0047091C1048091C2049E
:1056F0009091C3040E949F296091C004669570E058
:1057000041E050E08BE391E00E945C2F892B19F07F
:105710000E94AD2802C00E94B42881E08093BA04A0
:1057200020E04091C3046091C2048091C1040C94B4
:105730009E2A08958091C0048695815009F48BE0DB
:1057400061E00C945A2B8091C00486958F5F8C3059
:1057500008F081E061E00C945A2B1092B9008CE0C3
:105760008093B80008959F92AF92BF92CF92DF923C
:10577000EF92FF920F931F93CF93DF93B82EEB011D
:105780000E9447266C01C431D10558F0CF3F8FEFFE
:10579000D80759F0CE0164E170E00E94DE2E7B0153
:1057A00007C0EE24E394F12C03C025E0E22EF12C97
:1057B00084E8A82E94EA992E1092BC009092BC0026
:1057C0000E9447268C018091BC0087FD08C00E9482
:1057D0004726801B910B8E159F05A8F32AC0809148
:1057E000B900887F883041F08091B900887F80318E
:1057F00019F00FEF1FEF1FC0B092BB00A092BC00CA
:105800000E9447268C018091BC0087FD08C00E9441
:105810004726801B910B8E159F05A8F30AC0809127
:10582000B900887F883111F0803419F700E010E06A
:105830000EC00EEF1FEFCF3F8FEFD80709F4BCCF9C
:10584000C6010E942C268C179D0708F4B5CFC8010D
:10585000DF91CF911F910F91FF90EF90DF90CF904C
:10586000BF90AF909F9008950F931F93CF93DF93B6
:10587000EB018093BB0084E88093BC000E94472624
:105880008C018091BC0087FD0EC0CF3F8FEFD80701
:10589000C1F30E944726801B910B8C179D0788F34C
:1058A0008EEF9FEF0CC02091B900287F81E090E03F
:1058B000283211F480E090E0919581959109DF9173
:1058C000CF911F910F910895CF92DF92EF92FF92A7
:1058D0000F931F93CF93DF936B018A017901B90175
:1058E0000E94B32BE6010C0D1D1DC017D10761F4FA
:1058F00024E92093BC00DF91CF911F910F91FF907D
:10590000EF90DF90CF90089597FDF2CFB701899186
:105910000E94342CEACFCF92DF92EF92FF920F9346
:105920001F93CF93DF93C62F6A017901B8010E94BC
:10593000B32B97FD11C0B8018C2F0E94342CE601C7
:10594000EC0CFD1CCE15DF0539F097FD05C0B80144
:1059500089910E94342CF6CF24E92093BC00DF917A
:10596000CF911F910F91FF90EF90DF90CF9008950E
:1059700084E98093BC0008958EE14A9B02C0815067
:10598000E1F74A9BFECF08955A9880E28A95F1F795
:105990005A9A0895FC012AE02A95F1F728E090E050
:1059A00080E031E040E14A95F1F7880F4A9B02C060
:1059B0008160932700C0000040E14A95F1F7215033
:1059C00089F720E12A95F1F729B100C0000030E104
:1059D0003A95F1F722FB222720F992272081920F96
:1059E00090830895EF92FF920F931F93CF93DF93CD
:1059F0001F92CDB7DEB719828C017C01E60EF11C37
:105A00000E151F0551F00E94BC2CCE0101960E947C
:105A1000CA2CF80181938F01F3CF81E09981911114
:105A200080E00F90DF91CF911F910F91FF90EF9049
:105A30000895529A5A9A089552985A9AEA9AE9E61B
:105A4000F0E080818F7C80830895615091E001C0F7
:105A5000990F6A95EAF720E031E0992361F0492F28
:105A6000482319F05A9A232701C05A9840E24A95D0
:105A7000F1F79695F2CF222311F05A9A01C05A9865
:105A800080E28A95F1F75A980895FF920F931F9339
:105A9000CF93DF93EC018C01060F111DC017D107C6
:105AA00041F0F9900E94C42C68E08F2D0E94252DB2
:105AB000F5CFDF91CF911F910F91FF9008951F9225
:105AC0000F920FB60F921124EF92FF920F931F9334
:105AD0002F933F934F935F936F937F938F939F93F6
